{
  "contractName": "Artist",
  "abi": [
    {
      "constant": true,
      "inputs": [],
      "name": "name",
      "outputs": [
        {
          "name": "",
          "type": "string"
        }
      ],
      "payable": false,
      "stateMutability": "view",
      "type": "function"
    },
    {
      "constant": false,
      "inputs": [
        {
          "name": "spender",
          "type": "address"
        },
        {
          "name": "value",
          "type": "uint256"
        }
      ],
      "name": "approve",
      "outputs": [
        {
          "name": "",
          "type": "bool"
        }
      ],
      "payable": false,
      "stateMutability": "nonpayable",
      "type": "function"
    },
    {
      "constant": true,
      "inputs": [
        {
          "name": "",
          "type": "uint256"
        }
      ],
      "name": "projects",
      "outputs": [
        {
          "name": "",
          "type": "address"
        }
      ],
      "payable": false,
      "stateMutability": "view",
      "type": "function"
    },
    {
      "constant": true,
      "inputs": [],
      "name": "genre",
      "outputs": [
        {
          "name": "",
          "type": "string"
        }
      ],
      "payable": false,
      "stateMutability": "view",
      "type": "function"
    },
    {
      "constant": true,
      "inputs": [],
      "name": "totalSupply",
      "outputs": [
        {
          "name": "",
          "type": "uint256"
        }
      ],
      "payable": false,
      "stateMutability": "view",
      "type": "function"
    },
    {
      "constant": false,
      "inputs": [
        {
          "name": "sender",
          "type": "address"
        },
        {
          "name": "recipient",
          "type": "address"
        },
        {
          "name": "amount",
          "type": "uint256"
        }
      ],
      "name": "transferFrom",
      "outputs": [
        {
          "name": "",
          "type": "bool"
        }
      ],
      "payable": false,
      "stateMutability": "nonpayable",
      "type": "function"
    },
    {
      "constant": true,
      "inputs": [],
      "name": "decimals",
      "outputs": [
        {
          "name": "",
          "type": "uint8"
        }
      ],
      "payable": false,
      "stateMutability": "view",
      "type": "function"
    },
    {
      "constant": true,
      "inputs": [],
      "name": "projectCount",
      "outputs": [
        {
          "name": "",
          "type": "uint256"
        }
      ],
      "payable": false,
      "stateMutability": "view",
      "type": "function"
    },
    {
      "constant": true,
      "inputs": [],
      "name": "initialSupply",
      "outputs": [
        {
          "name": "",
          "type": "uint256"
        }
      ],
      "payable": false,
      "stateMutability": "view",
      "type": "function"
    },
    {
      "constant": false,
      "inputs": [
        {
          "name": "spender",
          "type": "address"
        },
        {
          "name": "addedValue",
          "type": "uint256"
        }
      ],
      "name": "increaseAllowance",
      "outputs": [
        {
          "name": "",
          "type": "bool"
        }
      ],
      "payable": false,
      "stateMutability": "nonpayable",
      "type": "function"
    },
    {
      "constant": true,
      "inputs": [],
      "name": "imageHash",
      "outputs": [
        {
          "name": "",
          "type": "string"
        }
      ],
      "payable": false,
      "stateMutability": "view",
      "type": "function"
    },
    {
      "constant": true,
      "inputs": [],
      "name": "location",
      "outputs": [
        {
          "name": "",
          "type": "string"
        }
      ],
      "payable": false,
      "stateMutability": "view",
      "type": "function"
    },
    {
      "constant": true,
      "inputs": [],
      "name": "merchandiseCount",
      "outputs": [
        {
          "name": "",
          "type": "uint256"
        }
      ],
      "payable": false,
      "stateMutability": "view",
      "type": "function"
    },
    {
      "constant": true,
      "inputs": [
        {
          "name": "account",
          "type": "address"
        }
      ],
      "name": "balanceOf",
      "outputs": [
        {
          "name": "",
          "type": "uint256"
        }
      ],
      "payable": false,
      "stateMutability": "view",
      "type": "function"
    },
    {
      "constant": true,
      "inputs": [
        {
          "name": "",
          "type": "uint256"
        }
      ],
      "name": "merchandise",
      "outputs": [
        {
          "name": "name",
          "type": "string"
        },
        {
          "name": "description",
          "type": "string"
        },
        {
          "name": "quantity",
          "type": "uint256"
        },
        {
          "name": "price",
          "type": "uint256"
        },
        {
          "name": "imageUrl",
          "type": "string"
        },
        {
          "name": "isAvailable",
          "type": "bool"
        }
      ],
      "payable": false,
      "stateMutability": "view",
      "type": "function"
    },
    {
      "constant": true,
      "inputs": [],
      "name": "owner",
      "outputs": [
        {
          "name": "",
          "type": "address"
        }
      ],
      "payable": false,
      "stateMutability": "view",
      "type": "function"
    },
    {
      "constant": true,
      "inputs": [],
      "name": "symbol",
      "outputs": [
        {
          "name": "",
          "type": "string"
        }
      ],
      "payable": false,
      "stateMutability": "view",
      "type": "function"
    },
    {
      "constant": false,
      "inputs": [
        {
          "name": "spender",
          "type": "address"
        },
        {
          "name": "subtractedValue",
          "type": "uint256"
        }
      ],
      "name": "decreaseAllowance",
      "outputs": [
        {
          "name": "",
          "type": "bool"
        }
      ],
      "payable": false,
      "stateMutability": "nonpayable",
      "type": "function"
    },
    {
      "constant": false,
      "inputs": [
        {
          "name": "recipient",
          "type": "address"
        },
        {
          "name": "amount",
          "type": "uint256"
        }
      ],
      "name": "transfer",
      "outputs": [
        {
          "name": "",
          "type": "bool"
        }
      ],
      "payable": false,
      "stateMutability": "nonpayable",
      "type": "function"
    },
    {
      "constant": true,
      "inputs": [
        {
          "name": "owner",
          "type": "address"
        },
        {
          "name": "spender",
          "type": "address"
        }
      ],
      "name": "allowance",
      "outputs": [
        {
          "name": "",
          "type": "uint256"
        }
      ],
      "payable": false,
      "stateMutability": "view",
      "type": "function"
    },
    {
      "constant": true,
      "inputs": [],
      "name": "bio",
      "outputs": [
        {
          "name": "",
          "type": "string"
        }
      ],
      "payable": false,
      "stateMutability": "view",
      "type": "function"
    },
    {
      "inputs": [
        {
          "name": "_name",
          "type": "string"
        },
        {
          "name": "_symbol",
          "type": "string"
        },
        {
          "name": "_decimals",
          "type": "uint8"
        },
        {
          "name": "_genre",
          "type": "string"
        },
        {
          "name": "_bio",
          "type": "string"
        },
        {
          "name": "_location",
          "type": "string"
        },
        {
          "name": "_imageHash",
          "type": "string"
        }
      ],
      "payable": false,
      "stateMutability": "nonpayable",
      "type": "constructor"
    },
    {
      "payable": false,
      "stateMutability": "nonpayable",
      "type": "fallback"
    },
    {
      "anonymous": false,
      "inputs": [
        {
          "indexed": false,
          "name": "name",
          "type": "string"
        },
        {
          "indexed": false,
          "name": "newProjectAddress",
          "type": "address"
        },
        {
          "indexed": false,
          "name": "ownerAddress",
          "type": "address"
        },
        {
          "indexed": false,
          "name": "ownerBalance",
          "type": "uint256"
        }
      ],
      "name": "LogProject",
      "type": "event"
    },
    {
      "anonymous": false,
      "inputs": [
        {
          "indexed": false,
          "name": "id",
          "type": "uint256"
        },
        {
          "indexed": false,
          "name": "name",
          "type": "string"
        }
      ],
      "name": "LogMerchAdded",
      "type": "event"
    },
    {
      "anonymous": false,
      "inputs": [
        {
          "indexed": true,
          "name": "from",
          "type": "address"
        },
        {
          "indexed": true,
          "name": "to",
          "type": "address"
        },
        {
          "indexed": false,
          "name": "value",
          "type": "uint256"
        }
      ],
      "name": "Transfer",
      "type": "event"
    },
    {
      "anonymous": false,
      "inputs": [
        {
          "indexed": true,
          "name": "owner",
          "type": "address"
        },
        {
          "indexed": true,
          "name": "spender",
          "type": "address"
        },
        {
          "indexed": false,
          "name": "value",
          "type": "uint256"
        }
      ],
      "name": "Approval",
      "type": "event"
    },
    {
      "constant": false,
      "inputs": [
        {
          "name": "_name",
          "type": "string"
        },
        {
          "name": "_desc",
          "type": "string"
        },
        {
          "name": "_quantity",
          "type": "uint256"
        },
        {
          "name": "_price",
          "type": "uint256"
        },
        {
          "name": "_imageUrl",
          "type": "string"
        }
      ],
      "name": "addMerch",
      "outputs": [],
      "payable": false,
      "stateMutability": "nonpayable",
      "type": "function"
    },
    {
      "constant": false,
      "inputs": [
        {
          "name": "id",
          "type": "uint256"
        }
      ],
      "name": "makeMerchAvailable",
      "outputs": [],
      "payable": false,
      "stateMutability": "nonpayable",
      "type": "function"
    },
    {
      "constant": false,
      "inputs": [
        {
          "name": "id",
          "type": "uint256"
        }
      ],
      "name": "makeMerchUnavailable",
      "outputs": [],
      "payable": false,
      "stateMutability": "nonpayable",
      "type": "function"
    },
    {
      "constant": false,
      "inputs": [
        {
          "name": "id",
          "type": "uint256"
        },
        {
          "name": "qty",
          "type": "uint256"
        }
      ],
      "name": "buyMerch",
      "outputs": [],
      "payable": false,
      "stateMutability": "nonpayable",
      "type": "function"
    },
    {
      "constant": false,
      "inputs": [
        {
          "name": "rate",
          "type": "uint256"
        },
        {
          "name": "cap",
          "type": "uint256"
        },
        {
          "name": "_name",
          "type": "string"
        },
        {
          "name": "_description",
          "type": "string"
        },
        {
          "name": "_imageHash",
          "type": "string"
        }
      ],
      "name": "createProject",
      "outputs": [
        {
          "name": "",
          "type": "address"
        }
      ],
      "payable": false,
      "stateMutability": "nonpayable",
      "type": "function"
    },
    {
      "constant": true,
      "inputs": [],
      "name": "fetchArtist",
      "outputs": [
        {
          "name": "name",
          "type": "string"
        },
        {
          "name": "owner",
          "type": "address"
        },
        {
          "name": "genre",
          "type": "string"
        },
        {
          "name": "bio",
          "type": "string"
        },
        {
          "name": "location",
          "type": "string"
        },
        {
          "name": "imageHash",
          "type": "string"
        },
        {
          "name": "projectCount",
          "type": "uint256"
        },
        {
          "name": "merchCount",
          "type": "uint256"
        }
      ],
      "payable": false,
      "stateMutability": "view",
      "type": "function"
    }
  ],
  "bytecode": "0x608060405264174876e8006006553480156200001a57600080fd5b5060405162003e6338038062003e63833981018060405260e08110156200004057600080fd5b8101908080516401000000008111156200005957600080fd5b820160208101848111156200006d57600080fd5b81516401000000008111828201871017156200008857600080fd5b50509291906020018051640100000000811115620000a557600080fd5b82016020810184811115620000b957600080fd5b8151640100000000811182820187101715620000d457600080fd5b50506020820151604090920180519194929391640100000000811115620000fa57600080fd5b820160208101848111156200010e57600080fd5b81516401000000008111828201871017156200012957600080fd5b505092919060200180516401000000008111156200014657600080fd5b820160208101848111156200015a57600080fd5b81516401000000008111828201871017156200017557600080fd5b505092919060200180516401000000008111156200019257600080fd5b82016020810184811115620001a657600080fd5b8151640100000000811182820187101715620001c157600080fd5b50509291906020018051640100000000811115620001de57600080fd5b82016020810184811115620001f257600080fd5b81516401000000008111828201871017156200020d57600080fd5b5050895190935089925088915087906200022f9060039060208601906200048a565b508151620002459060049060208501906200048a565b506005805460ff191660ff9290921691909117610100600160a81b031916610100330217905550508351620002829060079060208701906200048a565b508251620002989060089060208601906200048a565b508151620002ae9060099060208501906200048a565b508051620002c490600a9060208401906200048a565b506000600e819055600c55600654620002e6903390620002f3602090811b901c565b505050505050506200052f565b6001600160a01b0382166200036957604080517f08c379a000000000000000000000000000000000000000000000000000000000815260206004820152601f60248201527f45524332303a206d696e7420746f20746865207a65726f206164647265737300604482015290519081900360640190fd5b62000385816002546200040e60201b620022e31790919060201c565b6002556001600160a01b03821660009081526020818152604090912054620003b8918390620022e36200040e821b17901c565b6001600160a01b0383166000818152602081815260408083209490945583518581529351929391927fddf252ad1be2c89b69c2b068fc378daa952ba7f163c4a11628f55a4df523b3ef9281900390910190a35050565b6000828201838110156200048357604080517f08c379a000000000000000000000000000000000000000000000000000000000815260206004820152601b60248201527f536166654d6174683a206164646974696f6e206f766572666c6f770000000000604482015290519081900360640190fd5b9392505050565b828054600181600116156101000203166002900490600052602060002090601f016020900481019282601f10620004cd57805160ff1916838001178555620004fd565b82800160010185558215620004fd579182015b82811115620004fd578251825591602001919060010190620004e0565b506200050b9291506200050f565b5090565b6200052c91905b808211156200050b576000815560010162000516565b90565b613924806200053f6000396000f3fe60806040523480156200001157600080fd5b5060043610620001e45760003560e01c80635f632d691162000111578063a457c2d711620000a5578063be2a21b8116200007b578063be2a21b8146200081f578063c1162b4a1462000a6f578063dd62ed3e1462000c3b578063f516b4221462000c6c57620001e4565b8063a457c2d714620007a1578063a9059cbb14620007d0578063aaa69d3f14620007ff57620001e4565b80637921011811620000e75780637921011814620005e15780638bce71f414620007675780638da5cb5b146200078d57806395d89b41146200079757620001e4565b80635f632d6914620003e257806361e5dce314620005ae57806370a0823114620005b857620001e4565b806323b872dd1162000189578063378dc3dc116200015f578063378dc3dc146200039557806339509351146200039f57806351605d8014620003ce578063516f279e14620003d857620001e4565b806323b872dd1462000332578063313ce567146200036b57806336fbad26146200038b57620001e4565b8063107046bd11620001bf578063107046bd14620002d057806317de3a41146200030c57806318160ddd146200031657620001e4565b806306fdde0314620001e957806307904f07146200026b578063095ea7b3146200028d575b600080fd5b620001f362000c76565b6040805160208082528351818301528351919283929083019185019080838360005b838110156200022f57818101518382015260200162000215565b50505050905090810190601f1680156200025d5780820380516001836020036101000a031916815260200191505b509250505060405180910390f35b6200028b600480360360208110156200028357600080fd5b503562000d11565b005b620002bc60048036036040811015620002a557600080fd5b506001600160a01b03813516906020013562000d6d565b604080519115158252519081900360200190f35b620002f060048036036020811015620002e857600080fd5b503562000d85565b604080516001600160a01b039092168252519081900360200190f35b620001f362000da0565b6200032062000e32565b60408051918252519081900360200190f35b620002bc600480360360608110156200034a57600080fd5b506001600160a01b0381358116916020810135909116906040013562000e38565b6200037562000e95565b6040805160ff9092168252519081900360200190f35b6200032062000e9e565b6200032062000ea4565b620002bc60048036036040811015620003b757600080fd5b506001600160a01b03813516906020013562000eaa565b620001f362000ee9565b620001f362000f47565b620002f0600480360360a0811015620003fa57600080fd5b8135916020810135918101906060810160408201356401000000008111156200042257600080fd5b8201836020820111156200043557600080fd5b803590602001918460018302840111640100000000831117156200045857600080fd5b91908080601f0160208091040260200160405190810160405280939291908181526020018383808284376000920191909152509295949360208101935035915050640100000000811115620004ac57600080fd5b820183602082011115620004bf57600080fd5b80359060200191846001830284011164010000000083111715620004e257600080fd5b91908080601f01602080910402602001604051908101604052809392919081815260200183838082843760009201919091525092959493602081019350359150506401000000008111156200053657600080fd5b8201836020820111156200054957600080fd5b803590602001918460018302840111640100000000831117156200056c57600080fd5b91908080601f01602080910402602001604051908101604052809392919081815260200183838082843760009201919091525092955062000fa5945050505050565b620003206200134d565b6200032060048036036020811015620005d057600080fd5b50356001600160a01b031662001353565b6200060160048036036020811015620005f957600080fd5b50356200136e565b604051808060200180602001878152602001868152602001806020018515151515815260200184810384528a818151815260200191508051906020019080838360005b838110156200065e57818101518382015260200162000644565b50505050905090810190601f1680156200068c5780820380516001836020036101000a031916815260200191505b5084810383528951815289516020918201918b019080838360005b83811015620006c1578181015183820152602001620006a7565b50505050905090810190601f168015620006ef5780820380516001836020036101000a031916815260200191505b50848103825286518152865160209182019188019080838360005b83811015620007245781810151838201526020016200070a565b50505050905090810190601f168015620007525780820380516001836020036101000a031916815260200191505b50995050505050505050505060405180910390f35b6200028b600480360360408110156200077f57600080fd5b50803590602001356200156c565b620002f062001758565b620001f36200176c565b620002bc60048036036040811015620007b957600080fd5b506001600160a01b038135169060200135620017d0565b620002bc60048036036040811015620007e857600080fd5b506001600160a01b0381351690602001356200180f565b6200028b600480360360208110156200081757600080fd5b50356200181e565b6200082962001879565b6040518080602001896001600160a01b03166001600160a01b031681526020018060200180602001806020018060200188815260200187815260200186810386528e818151815260200191508051906020019080838360005b838110156200089c57818101518382015260200162000882565b50505050905090810190601f168015620008ca5780820380516001836020036101000a031916815260200191505b5086810385528c5181528c516020918201918e019080838360005b83811015620008ff578181015183820152602001620008e5565b50505050905090810190601f1680156200092d5780820380516001836020036101000a031916815260200191505b5086810384528b5181528b516020918201918d019080838360005b838110156200096257818101518382015260200162000948565b50505050905090810190601f168015620009905780820380516001836020036101000a031916815260200191505b5086810383528a5181528a516020918201918c019080838360005b83811015620009c5578181015183820152602001620009ab565b50505050905090810190601f168015620009f35780820380516001836020036101000a031916815260200191505b5086810382528951815289516020918201918b019080838360005b8381101562000a2857818101518382015260200162000a0e565b50505050905090810190601f16801562000a565780820380516001836020036101000a031916815260200191505b509d505050505050505050505050505060405180910390f35b6200028b600480360360a081101562000a8757600080fd5b81019060208101813564010000000081111562000aa357600080fd5b82018360208201111562000ab657600080fd5b8035906020019184600183028401116401000000008311171562000ad957600080fd5b91908080601f016020809104026020016040519081016040528093929190818152602001838380828437600092019190915250929594936020810193503591505064010000000081111562000b2d57600080fd5b82018360208201111562000b4057600080fd5b8035906020019184600183028401116401000000008311171562000b6357600080fd5b91908080601f016020809104026020016040519081016040528093929190818152602001838380828437600092019190915250929584359560208601359591945092506060810191506040013564010000000081111562000bc357600080fd5b82018360208201111562000bd657600080fd5b8035906020019184600183028401116401000000008311171562000bf957600080fd5b91908080601f01602080910402602001604051908101604052809392919081815260200183838082843760009201919091525092955062001e0e945050505050565b620003206004803603604081101562000c5357600080fd5b506001600160a01b038135811691602001351662001fb3565b620001f362001fde565b60038054604080516020601f600260001961010060018816150201909516949094049384018190048102820181019092528281526060939092909183018282801562000d065780601f1062000cda5761010080835404028352916020019162000d06565b820191906000526020600020905b81548152906001019060200180831162000ce857829003601f168201915b505050505090505b90565b60055461010090046001600160a01b0316331462000d2e57600080fd5b6000818152600d602052604090206005015460ff16151560011462000d5257600080fd5b6000908152600d60205260409020600501805460ff19169055565b600062000d7c3384846200203c565b50600192915050565b600b602052600090815260409020546001600160a01b031681565b6007805460408051602060026001851615610100026000190190941693909304601f8101849004840282018401909252818152929183018282801562000e2a5780601f1062000dfe5761010080835404028352916020019162000e2a565b820191906000526020600020905b81548152906001019060200180831162000e0c57829003601f168201915b505050505081565b60025490565b600062000e4784848462002132565b6001600160a01b03841660009081526001602090815260408083203380855292529091205462000e8b91869162000e85908663ffffffff6200228216565b6200203c565b5060019392505050565b60055460ff1690565b600c5481565b60065481565b3360008181526001602090815260408083206001600160a01b0387168452909152812054909162000d7c91859062000e85908663ffffffff620022e316565b600a805460408051602060026001851615610100026000190190941693909304601f8101849004840282018401909252818152929183018282801562000e2a5780601f1062000dfe5761010080835404028352916020019162000e2a565b6009805460408051602060026001851615610100026000190190941693909304601f8101849004840282018401909252818152929183018282801562000e2a5780601f1062000dfe5761010080835404028352916020019162000e2a565b60055460009061010090046001600160a01b0316331462000fc557600080fd5b6000306001600160a01b03166370a08231306001600160a01b0316638da5cb5b6040518163ffffffff1660e01b815260040160206040518083038186803b1580156200101057600080fd5b505afa15801562001025573d6000803e3d6000fd5b505050506040513d60208110156200103c57600080fd5b50516040805163ffffffff841660e01b81526001600160a01b039092166004830152516024808301926020929190829003018186803b1580156200107f57600080fd5b505afa15801562001094573d6000803e3d6000fd5b505050506040513d6020811015620010ab57600080fd5b50516040519091506000908890339030908a908a908a908a90620010cf9062002348565b80888152602001876001600160a01b03166001600160a01b03168152602001866001600160a01b03166001600160a01b03168152602001858152602001806020018060200180602001848103845287818151815260200191508051906020019080838360005b838110156200114f57818101518382015260200162001135565b50505050905090810190601f1680156200117d5780820380516001836020036101000a031916815260200191505b50848103835286518152865160209182019188019080838360005b83811015620011b257818101518382015260200162001198565b50505050905090810190601f168015620011e05780820380516001836020036101000a031916815260200191505b50848103825285518152855160209182019187019080838360005b8381101562001215578181015183820152602001620011fb565b50505050905090810190601f168015620012435780820380516001836020036101000a031916815260200191505b509a5050505050505050505050604051809103906000f0801580156200126d573d6000803e3d6000fd5b50600554604080516001600160a01b03808516602080840191909152610100909404169181018290526060810186905260808082528a5190820152895193945084937f6ca8a353551ce90d4eced0f252b7c7d0fc2925eae61db38dc59a0c0a014dab2a938b93869390928992829160a083019188019080838360005b8381101562001303578181015183820152602001620012e9565b50505050905090810190601f168015620013315780820380516001836020036101000a031916815260200191505b509550505050505060405180910390a198975050505050505050565b600e5481565b6001600160a01b031660009081526020819052604090205490565b600d6020908152600091825260409182902080548351601f60026000196101006001861615020190931692909204918201849004840281018401909452808452909291839190830182828015620014095780601f10620013dd5761010080835404028352916020019162001409565b820191906000526020600020905b815481529060010190602001808311620013eb57829003601f168201915b505050505090806001018054600181600116156101000203166002900480601f016020809104026020016040519081016040528092919081815260200182805460018160011615610100020316600290048015620014ab5780601f106200147f57610100808354040283529160200191620014ab565b820191906000526020600020905b8154815290600101906020018083116200148d57829003601f168201915b505050505090806002015490806003015490806004018054600181600116156101000203166002900480601f016020809104026020016040519081016040528092919081815260200182805460018160011615610100020316600290048015620015595780601f106200152d5761010080835404028352916020019162001559565b820191906000526020600020905b8154815290600101906020018083116200153b57829003601f168201915b5050506005909301549192505060ff1686565b6000828152600d6020526040902060028101548211156200158c57600080fd5b600581015460ff161515600114620015a357600080fd5b6003810154604080517f70a0823100000000000000000000000000000000000000000000000000000000815233600482015290519184029160009130916370a0823191602480820192602092909190829003018186803b1580156200160757600080fd5b505afa1580156200161c573d6000803e3d6000fd5b505050506040513d60208110156200163357600080fd5b505190508181106200175157306001600160a01b031663a9059cbb306001600160a01b0316638da5cb5b6040518163ffffffff1660e01b815260040160206040518083038186803b1580156200168857600080fd5b505afa1580156200169d573d6000803e3d6000fd5b505050506040513d6020811015620016b457600080fd5b50516040805163ffffffff841660e01b81526001600160a01b039092166004830152602482018690525160448083019260209291908290030181600087803b1580156200170057600080fd5b505af115801562001715573d6000803e3d6000fd5b505050506040513d60208110156200172c57600080fd5b5050600283018054859003905533600090815260068401602052604090208054850190555b5050505050565b60055461010090046001600160a01b031681565b60048054604080516020601f600260001961010060018816150201909516949094049384018190048102820181019092528281526060939092909183018282801562000d065780601f1062000cda5761010080835404028352916020019162000d06565b3360008181526001602090815260408083206001600160a01b0387168452909152812054909162000d7c91859062000e85908663ffffffff6200228216565b600062000d7c33848462002132565b60055461010090046001600160a01b031633146200183b57600080fd5b6000818152600d602052604090206005015460ff16156200185b57600080fd5b6000908152600d60205260409020600501805460ff19166001179055565b60606000606080606080600080306001600160a01b0316638da5cb5b6040518163ffffffff1660e01b815260040160206040518083038186803b158015620018c057600080fd5b505afa158015620018d5573d6000803e3d6000fd5b505050506040513d6020811015620018ec57600080fd5b5051604080517f17de3a41000000000000000000000000000000000000000000000000000000008152905191985030916317de3a4191600480820192600092909190829003018186803b1580156200194357600080fd5b505afa15801562001958573d6000803e3d6000fd5b505050506040513d6000823e601f3d908101601f1916820160405260208110156200198257600080fd5b8101908080516401000000008111156200199b57600080fd5b82016020810184811115620019af57600080fd5b8151640100000000811182820187101715620019ca57600080fd5b50509291905050509550306001600160a01b031663f516b4226040518163ffffffff1660e01b815260040160006040518083038186803b15801562001a0e57600080fd5b505afa15801562001a23573d6000803e3d6000fd5b505050506040513d6000823e601f3d908101601f19168201604052602081101562001a4d57600080fd5b81019080805164010000000081111562001a6657600080fd5b8201602081018481111562001a7a57600080fd5b815164010000000081118282018710171562001a9557600080fd5b50509291905050509450306001600160a01b031663516f279e6040518163ffffffff1660e01b815260040160006040518083038186803b15801562001ad957600080fd5b505afa15801562001aee573d6000803e3d6000fd5b505050506040513d6000823e601f3d908101601f19168201604052602081101562001b1857600080fd5b81019080805164010000000081111562001b3157600080fd5b8201602081018481111562001b4557600080fd5b815164010000000081118282018710171562001b6057600080fd5b50509291905050509350306001600160a01b03166351605d806040518163ffffffff1660e01b815260040160006040518083038186803b15801562001ba457600080fd5b505afa15801562001bb9573d6000803e3d6000fd5b505050506040513d6000823e601f3d908101601f19168201604052602081101562001be357600080fd5b81019080805164010000000081111562001bfc57600080fd5b8201602081018481111562001c1057600080fd5b815164010000000081118282018710171562001c2b57600080fd5b50509291905050509250306001600160a01b03166336fbad266040518163ffffffff1660e01b815260040160206040518083038186803b15801562001c6f57600080fd5b505afa15801562001c84573d6000803e3d6000fd5b505050506040513d602081101562001c9b57600080fd5b5051604080517f61e5dce3000000000000000000000000000000000000000000000000000000008152905191935030916361e5dce391600480820192602092909190829003018186803b15801562001cf257600080fd5b505afa15801562001d07573d6000803e3d6000fd5b505050506040513d602081101562001d1e57600080fd5b5051604080517f06fdde03000000000000000000000000000000000000000000000000000000008152905191925030916306fdde0391600480820192600092909190829003018186803b15801562001d7557600080fd5b505afa15801562001d8a573d6000803e3d6000fd5b505050506040513d6000823e601f3d908101601f19168201604052602081101562001db457600080fd5b81019080805164010000000081111562001dcd57600080fd5b8201602081018481111562001de157600080fd5b815164010000000081118282018710171562001dfc57600080fd5b50909b50505050509091929394959697565b60055461010090046001600160a01b0316331462001e2b57600080fd5b62001e3562002356565b506040805160c08101825286815260208082018790528183018690526060820185905260808201849052600160a0830152600e546000818152600d83529390932082518051939493859362001e8f9284929101906200238e565b50602082810151805162001eaa92600185019201906200238e565b5060408201516002820155606082015160038201556080820151805162001edc9160048401916020909101906200238e565b5060a091909101516005909101805460ff1916911515919091179055600e80546001019055815160408051838152602080820183815284519383019390935283517fdc7b12f3a3e657a393c15b8829b0691514c35869915f01e723dbb8bcec35c65a9486949093929091606084019185019080838360005b8381101562001f6e57818101518382015260200162001f54565b50505050905090810190601f16801562001f9c5780820380516001836020036101000a031916815260200191505b50935050505060405180910390a150505050505050565b6001600160a01b03918216600090815260016020908152604080832093909416825291909152205490565b6008805460408051602060026001851615610100026000190190941693909304601f8101849004840282018401909252818152929183018282801562000e2a5780601f1062000dfe5761010080835404028352916020019162000e2a565b6001600160a01b0383166200208657604051600160e51b62461bcd028152600401808060200182810382526024815260200180620038d56024913960400191505060405180910390fd5b6001600160a01b038216620020d057604051600160e51b62461bcd0281526004018080602001828103825260228152602001806200388e6022913960400191505060405180910390fd5b6001600160a01b03808416600081815260016020908152604080832094871680845294825291829020859055815185815291517f8c5be1e5ebec7d5bd14f71427d1e84f3dd0314c0f7b2291e5b200ac8c7c3b9259281900390910190a3505050565b6001600160a01b0383166200217c57604051600160e51b62461bcd028152600401808060200182810382526025815260200180620038b06025913960400191505060405180910390fd5b6001600160a01b038216620021c657604051600160e51b62461bcd0281526004018080602001828103825260238152602001806200386b6023913960400191505060405180910390fd5b6001600160a01b038316600090815260208190526040902054620021f1908263ffffffff6200228216565b6001600160a01b03808516600090815260208190526040808220939093559084168152205462002228908263ffffffff620022e316565b6001600160a01b038084166000818152602081815260409182902094909455805185815290519193928716927fddf252ad1be2c89b69c2b068fc378daa952ba7f163c4a11628f55a4df523b3ef92918290030190a3505050565b600082821115620022dd5760408051600160e51b62461bcd02815260206004820152601e60248201527f536166654d6174683a207375627472616374696f6e206f766572666c6f770000604482015290519081900360640190fd5b50900390565b600082820183811015620023415760408051600160e51b62461bcd02815260206004820152601b60248201527f536166654d6174683a206164646974696f6e206f766572666c6f770000000000604482015290519081900360640190fd5b9392505050565b61143a806200243183390190565b6040518060c0016040528060608152602001606081526020016000815260200160008152602001606081526020016000151581525090565b828054600181600116156101000203166002900490600052602060002090601f016020900481019282601f10620023d157805160ff191683800117855562002401565b8280016001018555821562002401579182015b8281111562002401578251825591602001919060010190620023e4565b506200240f92915062002413565b5090565b62000d0e91905b808211156200240f57600081556001016200241a56fe60806040523480156200001157600080fd5b506040516200143a3803806200143a833981018060405260e08110156200003757600080fd5b8151602083015160408401516060850151608086018051949693959294919392830192916401000000008111156200006e57600080fd5b820160208101848111156200008257600080fd5b81516401000000008111828201871017156200009d57600080fd5b50509291906020018051640100000000811115620000ba57600080fd5b82016020810184811115620000ce57600080fd5b8151640100000000811182820187101715620000e957600080fd5b505092919060200180516401000000008111156200010657600080fd5b820160208101848111156200011a57600080fd5b81516401000000008111828201871017156200013557600080fd5b505060016000559250859150889050878782620001b357604080517f08c379a000000000000000000000000000000000000000000000000000000000815260206004820152601460248201527f43726f776473616c653a20726174652069732030000000000000000000000000604482015290519081900360640190fd5b6001600160a01b03821662000214576040517f08c379a0000000000000000000000000000000000000000000000000000000008152600401808060200182810382526025815260200180620014156025913960400191505060405180910390fd5b6001600160a01b03811662000275576040517f08c379a0000000000000000000000000000000000000000000000000000000008152600401808060200182810382526024815260200180620013f16024913960400191505060405180910390fd5b600392909255600280546001600160a01b039283166001600160a01b03199182161790915560018054929093169116179055806200031457604080517f08c379a000000000000000000000000000000000000000000000000000000000815260206004820152601960248201527f43617070656443726f776473616c653a20636170206973203000000000000000604482015290519081900360640190fd5b600555600680546001600160a01b0319163317905582516200033e90600790602086019062000378565b5081516200035490600990602085019062000378565b5080516200036a90600890602084019062000378565b50505050505050506200041d565b828054600181600116156101000203166002900490600052602060002090601f016020900481019282601f10620003bb57805160ff1916838001178555620003eb565b82800160010185558215620003eb579182015b82811115620003eb578251825591602001919060010190620003ce565b50620003f9929150620003fd565b5090565b6200041a91905b80821115620003f9576000815560010162000404565b90565b610fc4806200042d6000396000f3fe6080604052600436106100c75760003560e01c8063521eb273116100745780638da5cb5b1161004e5780638da5cb5b146103c3578063ec8ac4d8146103d8578063fc0c546a146103fe576100c7565b8063521eb273146101eb5780637284e4161461021c5780638c3006c714610231576100c7565b80634042b66f116100a55780634042b66f146101985780634f935945146101ad57806351605d80146101d6576100c7565b806306fdde03146100d25780632c4e722e1461015c578063355274ea14610183575b6100d033610413565b005b3480156100de57600080fd5b506100e761051a565b6040805160208082528351818301528351919283929083019185019080838360005b83811015610121578181015183820152602001610109565b50505050905090810190601f16801561014e5780820380516001836020036101000a031916815260200191505b509250505060405180910390f35b34801561016857600080fd5b506101716105a8565b60408051918252519081900360200190f35b34801561018f57600080fd5b506101716105ae565b3480156101a457600080fd5b506101716105b4565b3480156101b957600080fd5b506101c26105ba565b604080519115158252519081900360200190f35b3480156101e257600080fd5b506100e76105ce565b3480156101f757600080fd5b50610200610629565b604080516001600160a01b039092168252519081900360200190f35b34801561022857600080fd5b506100e7610638565b34801561023d57600080fd5b50610246610693565b60405180876001600160a01b03166001600160a01b03168152602001806020018060200180602001868152602001856001600160a01b03166001600160a01b03168152602001848103845289818151815260200191508051906020019080838360005b838110156102c15781810151838201526020016102a9565b50505050905090810190601f1680156102ee5780820380516001836020036101000a031916815260200191505b5084810383528851815288516020918201918a019080838360005b83811015610321578181015183820152602001610309565b50505050905090810190601f16801561034e5780820380516001836020036101000a031916815260200191505b50848103825287518152875160209182019189019080838360005b83811015610381578181015183820152602001610369565b50505050905090810190601f1680156103ae5780820380516001836020036101000a031916815260200191505b50995050505050505050505060405180910390f35b3480156103cf57600080fd5b50610200610a5b565b6100d0600480360360208110156103ee57600080fd5b50356001600160a01b0316610413565b34801561040a57600080fd5b50610200610a6a565b6000805460010190819055346104298382610a79565b600061043482610af4565b60045490915061044a908363ffffffff610b1116565b6004556104578482610b75565b604080518381526020810183905281516001600160a01b0387169233927f6faf93231a456e552dbc9961f58d9713ee4f2e69d15f1975b050ef0911053a7b929081900390910190a36104a98483610516565b6104b1610b7f565b6104bb8483610516565b505060005481146105165760408051600160e51b62461bcd02815260206004820152601f60248201527f5265656e7472616e637947756172643a207265656e7472616e742063616c6c00604482015290519081900360640190fd5b5050565b6007805460408051602060026001851615610100026000190190941693909304601f810184900484028201840190925281815292918301828280156105a05780601f10610575576101008083540402835291602001916105a0565b820191906000526020600020905b81548152906001019060200180831161058357829003601f168201915b505050505081565b60035490565b60055490565b60045490565b60006005546105c76105b4565b1015905090565b6008805460408051602060026001851615610100026000190190941693909304601f810184900484028201840190925281815292918301828280156105a05780601f10610575576101008083540402835291602001916105a0565b6002546001600160a01b031690565b6009805460408051602060026001851615610100026000190190941693909304601f810184900484028201840190925281815292918301828280156105a05780601f10610575576101008083540402835291602001916105a0565b60006060806060600080306001600160a01b0316638da5cb5b6040518163ffffffff1660e01b815260040160206040518083038186803b1580156106d657600080fd5b505afa1580156106ea573d6000803e3d6000fd5b505050506040513d602081101561070057600080fd5b5051604080517f06fdde03000000000000000000000000000000000000000000000000000000008152905191975030916306fdde0391600480820192600092909190829003018186803b15801561075657600080fd5b505afa15801561076a573d6000803e3d6000fd5b505050506040513d6000823e601f3d908101601f19168201604052602081101561079357600080fd5b8101908080516401000000008111156107ab57600080fd5b820160208101848111156107be57600080fd5b81516401000000008111828201871017156107d857600080fd5b50509291905050509450306001600160a01b03166351605d806040518163ffffffff1660e01b815260040160006040518083038186803b15801561081b57600080fd5b505afa15801561082f573d6000803e3d6000fd5b505050506040513d6000823e601f3d908101601f19168201604052602081101561085857600080fd5b81019080805164010000000081111561087057600080fd5b8201602081018481111561088357600080fd5b815164010000000081118282018710171561089d57600080fd5b50509291905050509350306001600160a01b0316637284e4166040518163ffffffff1660e01b815260040160006040518083038186803b1580156108e057600080fd5b505afa1580156108f4573d6000803e3d6000fd5b505050506040513d6000823e601f3d908101601f19168201604052602081101561091d57600080fd5b81019080805164010000000081111561093557600080fd5b8201602081018481111561094857600080fd5b815164010000000081118282018710171561096257600080fd5b50509291905050509250306001600160a01b0316632c4e722e6040518163ffffffff1660e01b815260040160206040518083038186803b1580156109a557600080fd5b505afa1580156109b9573d6000803e3d6000fd5b505050506040513d60208110156109cf57600080fd5b5051604080517f521eb2730000000000000000000000000000000000000000000000000000000081529051919350309163521eb27391600480820192602092909190829003018186803b158015610a2557600080fd5b505afa158015610a39573d6000803e3d6000fd5b505050506040513d6020811015610a4f57600080fd5b50519050909192939495565b6006546001600160a01b031681565b6001546001600160a01b031690565b610a838282610bbb565b600554610a9e82610a926105b4565b9063ffffffff610b1116565b11156105165760408051600160e51b62461bcd02815260206004820152601d60248201527f43617070656443726f776473616c653a20636170206578636565646564000000604482015290519081900360640190fd5b6000610b0b60035483610c5890919063ffffffff16565b92915050565b600082820183811015610b6e5760408051600160e51b62461bcd02815260206004820152601b60248201527f536166654d6174683a206164646974696f6e206f766572666c6f770000000000604482015290519081900360640190fd5b9392505050565b6105168282610cb4565b6002546040516001600160a01b03909116903480156108fc02916000818181858888f19350505050158015610bb8573d6000803e3d6000fd5b50565b6001600160a01b038216610c0357604051600160e51b62461bcd02815260040180806020018281038252602a815260200180610f45602a913960400191505060405180910390fd5b806105165760408051600160e51b62461bcd02815260206004820152601960248201527f43726f776473616c653a20776569416d6f756e74206973203000000000000000604482015290519081900360640190fd5b600082610c6757506000610b0b565b82820282848281610c7457fe5b0414610b6e57604051600160e51b62461bcd028152600401808060200182810382526021815260200180610f246021913960400191505060405180910390fd5b600154610516906001600160a01b0316838363ffffffff610cd116565b604080516001600160a01b038416602482015260448082018490528251808303909101815260649091019091526020810180517bffffffffffffffffffffffffffffffffffffffffffffffffffffffff167fa9059cbb00000000000000000000000000000000000000000000000000000000179052610d51908490610d56565b505050565b610d68826001600160a01b0316610f1d565b610dbc5760408051600160e51b62461bcd02815260206004820152601f60248201527f5361666545524332303a2063616c6c20746f206e6f6e2d636f6e747261637400604482015290519081900360640190fd5b60006060836001600160a01b0316836040518082805190602001908083835b60208310610dfa5780518252601f199092019160209182019101610ddb565b6001836020036101000a0380198251168184511680821785525050505050509050019150506000604051808303816000865af19150503d8060008114610e5c576040519150601f19603f3d011682016040523d82523d6000602084013e610e61565b606091505b509150915081610ebb5760408051600160e51b62461bcd02815260206004820181905260248201527f5361666545524332303a206c6f772d6c6576656c2063616c6c206661696c6564604482015290519081900360640190fd5b805115610f1757808060200190516020811015610ed757600080fd5b5051610f1757604051600160e51b62461bcd02815260040180806020018281038252602a815260200180610f6f602a913960400191505060405180910390fd5b50505050565b3b15159056fe536166654d6174683a206d756c7469706c69636174696f6e206f766572666c6f7743726f776473616c653a2062656e656669636961727920697320746865207a65726f20616464726573735361666545524332303a204552433230206f7065726174696f6e20646964206e6f742073756363656564a165627a7a7230582040858d2608c0d3a81902b97855247089a35e85606156d13ca50534e26d975e16002943726f776473616c653a20746f6b656e20697320746865207a65726f206164647265737343726f776473616c653a2077616c6c657420697320746865207a65726f206164647265737345524332303a207472616e7366657220746f20746865207a65726f206164647265737345524332303a20617070726f766520746f20746865207a65726f206164647265737345524332303a207472616e736665722066726f6d20746865207a65726f206164647265737345524332303a20617070726f76652066726f6d20746865207a65726f2061646472657373a165627a7a7230582081ddd7c906d515a7b10549a477cd64f3736e244796bf55d6a97244a8744c4de20029",
  "source": "pragma solidity 0.5.8;\n\nimport \"../client/node_modules/openzeppelin-solidity/contracts/token/ERC20/ERC20.sol\";\nimport \"../client/node_modules/openzeppelin-solidity/contracts/token/ERC20/ERC20Detailed.sol\";\nimport \"./Project.sol\";\n\ncontract Artist is ERC20, ERC20Detailed {\n    address payable public owner;\n    uint256 public initialSupply = 100000000000;\n    string public genre;\n    string public bio;\n    string public location;\n    string public imageHash;\n\n    mapping (uint => address) public projects;\n    uint public projectCount;\n\n    mapping (uint => Merch) public merchandise;\n    uint public merchandiseCount;\n\n    event LogProject(string name, address newProjectAddress, address ownerAddress, uint ownerBalance);\n    event LogMerchAdded(uint id, string name);\n\n    struct Merch {\n        string name;\n        string description;\n        uint quantity;\n        uint price;\n        string imageUrl;\n        bool isAvailable;\n        mapping (address => uint) buyers;\n    }\n\n    modifier verifyOwner() {require (msg.sender == owner);_;}\n\n    constructor(string memory _name, string memory _symbol, uint8 _decimals, string memory _genre, string memory _bio, string memory _location, string memory _imageHash) \n    ERC20Detailed(_name, _symbol, _decimals)\n    public {\n        owner = msg.sender;\n        genre = _genre;\n        bio = _bio;\n        location = _location;\n        imageHash = _imageHash;\n        merchandiseCount = 0;\n        projectCount = 0;\n        _mint(msg.sender, initialSupply);\n    }    \n\n    /** \n    \n    Artist Store functions    \n    \n    **/\n    function addMerch(string memory _name, string memory _desc, uint _quantity, uint256 _price, string memory _imageUrl) public verifyOwner() {\n        Merch memory newMerch = Merch({name: _name, description: _desc, quantity: _quantity, price: _price, imageUrl: _imageUrl,isAvailable: true });\n        uint newMerchId = merchandiseCount;\n        merchandise[newMerchId] = newMerch;\n        merchandiseCount++;\n        emit LogMerchAdded(newMerchId, newMerch.name);\n    }\n\n\n    function makeMerchAvailable(uint id) public verifyOwner() {\n        require (merchandise[id].isAvailable == false);\n        merchandise[id].isAvailable = true;\n    }\n\n    function makeMerchUnavailable(uint id) public verifyOwner() {\n        require (merchandise[id].isAvailable == true);\n        merchandise[id].isAvailable = false;\n    }\n\n    function buyMerch(uint id, uint qty) public {\n        Merch storage merch = merchandise[id];\n        require (merch.quantity >= qty);\n        require (merch.isAvailable == true);\n\n        uint totalPrice = merch.price * qty;\n        uint buyerTokenBalance = this.balanceOf(msg.sender);\n\n        if (buyerTokenBalance >= totalPrice) {\n            this.transfer(this.owner(), totalPrice);\n            merch.quantity = merch.quantity - qty;\n            merch.buyers[msg.sender] += qty;\n            if (merch.quantity == 0 ){\n                merch.isAvailable == false;\n            }\n        }\n    }\n\n    function createProject(uint256 rate,uint256 cap, string memory _name, string memory _description, string memory _imageHash) public verifyOwner() returns(address) {\n        uint ownerBalance = this.balanceOf(this.owner());\n\n        Project newProject = new Project(rate, msg.sender, this, cap, _name, _description, _imageHash );\n        address projectAddress = address(newProject);\n\n        \n        emit LogProject(_name, projectAddress, owner, ownerBalance);\n        \n        return projectAddress;\n    }\n\n    function fetchArtist() public view returns (string memory name, address owner, string memory genre, string memory bio, string memory location, string memory imageHash, uint projectCount, uint merchCount) {\n        owner = this.owner();\n        genre = this.genre();\n        bio = this.bio();\n        location = this.location();\n        imageHash = this.imageHash();\n        projectCount = this.projectCount();\n        merchCount = this.merchandiseCount();\n        name = this.name();\n        return (name, owner, genre, bio, location, imageHash, projectCount, merchCount);\n    }\n\n\n    function () external {\n        revert();\n    }\n}",
  "sourcePath": "/Users/g158726/Projects/other/music-dapp/contracts/Artist.sol",
  "compiler": {
    "name": "solc",
    "version": "0.5.8+commit.23d335f2.Emscripten.clang"
  },
  "schemaVersion": "3.0.11",
  "updatedAt": "2019-07-27T21:24:48.748Z",
  "devdoc": {
    "methods": {
      "allowance(address,address)": {
        "details": "See `IERC20.allowance`."
      },
      "approve(address,uint256)": {
        "details": "See `IERC20.approve`.     * Requirements:     * - `spender` cannot be the zero address."
      },
      "balanceOf(address)": {
        "details": "See `IERC20.balanceOf`."
      },
      "decimals()": {
        "details": "Returns the number of decimals used to get its user representation. For example, if `decimals` equals `2`, a balance of `505` tokens should be displayed to a user as `5,05` (`505 / 10 ** 2`).     * Tokens usually opt for a value of 18, imitating the relationship between Ether and Wei.     * > Note that this information is only used for _display_ purposes: it in no way affects any of the arithmetic of the contract, including `IERC20.balanceOf` and `IERC20.transfer`."
      },
      "decreaseAllowance(address,uint256)": {
        "details": "Atomically decreases the allowance granted to `spender` by the caller.     * This is an alternative to `approve` that can be used as a mitigation for problems described in `IERC20.approve`.     * Emits an `Approval` event indicating the updated allowance.     * Requirements:     * - `spender` cannot be the zero address. - `spender` must have allowance for the caller of at least `subtractedValue`."
      },
      "increaseAllowance(address,uint256)": {
        "details": "Atomically increases the allowance granted to `spender` by the caller.     * This is an alternative to `approve` that can be used as a mitigation for problems described in `IERC20.approve`.     * Emits an `Approval` event indicating the updated allowance.     * Requirements:     * - `spender` cannot be the zero address."
      },
      "name()": {
        "details": "Returns the name of the token."
      },
      "symbol()": {
        "details": "Returns the symbol of the token, usually a shorter version of the name."
      },
      "totalSupply()": {
        "details": "See `IERC20.totalSupply`."
      },
      "transfer(address,uint256)": {
        "details": "See `IERC20.transfer`.     * Requirements:     * - `recipient` cannot be the zero address. - the caller must have a balance of at least `amount`."
      },
      "transferFrom(address,address,uint256)": {
        "details": "See `IERC20.transferFrom`.     * Emits an `Approval` event indicating the updated allowance. This is not required by the EIP. See the note at the beginning of `ERC20`;     * Requirements: - `sender` and `recipient` cannot be the zero address. - `sender` must have a balance of at least `value`. - the caller must have allowance for `sender`'s tokens of at least `amount`."
      }
    }
  },
  "userdoc": {
    "methods": {
      "addMerch(string,string,uint256,uint256,string)": {
        "notice": "Artist Store functions    *"
      }
    }
  }
}