{
  "contractName": "Artist",
  "abi": [
    {
      "constant": true,
      "inputs": [],
      "name": "name",
      "outputs": [
        {
          "name": "",
          "type": "string"
        }
      ],
      "payable": false,
      "stateMutability": "view",
      "type": "function"
    },
    {
      "constant": false,
      "inputs": [
        {
          "name": "spender",
          "type": "address"
        },
        {
          "name": "value",
          "type": "uint256"
        }
      ],
      "name": "approve",
      "outputs": [
        {
          "name": "",
          "type": "bool"
        }
      ],
      "payable": false,
      "stateMutability": "nonpayable",
      "type": "function"
    },
    {
      "constant": true,
      "inputs": [
        {
          "name": "",
          "type": "uint256"
        }
      ],
      "name": "projects",
      "outputs": [
        {
          "name": "",
          "type": "address"
        }
      ],
      "payable": false,
      "stateMutability": "view",
      "type": "function"
    },
    {
      "constant": true,
      "inputs": [],
      "name": "genre",
      "outputs": [
        {
          "name": "",
          "type": "string"
        }
      ],
      "payable": false,
      "stateMutability": "view",
      "type": "function"
    },
    {
      "constant": true,
      "inputs": [],
      "name": "totalSupply",
      "outputs": [
        {
          "name": "",
          "type": "uint256"
        }
      ],
      "payable": false,
      "stateMutability": "view",
      "type": "function"
    },
    {
      "constant": false,
      "inputs": [
        {
          "name": "from",
          "type": "address"
        },
        {
          "name": "to",
          "type": "address"
        },
        {
          "name": "value",
          "type": "uint256"
        }
      ],
      "name": "transferFrom",
      "outputs": [
        {
          "name": "",
          "type": "bool"
        }
      ],
      "payable": false,
      "stateMutability": "nonpayable",
      "type": "function"
    },
    {
      "constant": true,
      "inputs": [],
      "name": "decimals",
      "outputs": [
        {
          "name": "",
          "type": "uint8"
        }
      ],
      "payable": false,
      "stateMutability": "view",
      "type": "function"
    },
    {
      "constant": true,
      "inputs": [],
      "name": "projectCount",
      "outputs": [
        {
          "name": "",
          "type": "uint256"
        }
      ],
      "payable": false,
      "stateMutability": "view",
      "type": "function"
    },
    {
      "constant": true,
      "inputs": [],
      "name": "initialSupply",
      "outputs": [
        {
          "name": "",
          "type": "uint256"
        }
      ],
      "payable": false,
      "stateMutability": "view",
      "type": "function"
    },
    {
      "constant": false,
      "inputs": [
        {
          "name": "spender",
          "type": "address"
        },
        {
          "name": "addedValue",
          "type": "uint256"
        }
      ],
      "name": "increaseAllowance",
      "outputs": [
        {
          "name": "",
          "type": "bool"
        }
      ],
      "payable": false,
      "stateMutability": "nonpayable",
      "type": "function"
    },
    {
      "constant": false,
      "inputs": [],
      "name": "unpause",
      "outputs": [],
      "payable": false,
      "stateMutability": "nonpayable",
      "type": "function"
    },
    {
      "constant": false,
      "inputs": [
        {
          "name": "account",
          "type": "address"
        },
        {
          "name": "amount",
          "type": "uint256"
        }
      ],
      "name": "mint",
      "outputs": [
        {
          "name": "",
          "type": "bool"
        }
      ],
      "payable": false,
      "stateMutability": "nonpayable",
      "type": "function"
    },
    {
      "constant": true,
      "inputs": [
        {
          "name": "account",
          "type": "address"
        }
      ],
      "name": "isPauser",
      "outputs": [
        {
          "name": "",
          "type": "bool"
        }
      ],
      "payable": false,
      "stateMutability": "view",
      "type": "function"
    },
    {
      "constant": true,
      "inputs": [],
      "name": "imageHash",
      "outputs": [
        {
          "name": "",
          "type": "string"
        }
      ],
      "payable": false,
      "stateMutability": "view",
      "type": "function"
    },
    {
      "constant": true,
      "inputs": [],
      "name": "location",
      "outputs": [
        {
          "name": "",
          "type": "string"
        }
      ],
      "payable": false,
      "stateMutability": "view",
      "type": "function"
    },
    {
      "constant": true,
      "inputs": [],
      "name": "paused",
      "outputs": [
        {
          "name": "",
          "type": "bool"
        }
      ],
      "payable": false,
      "stateMutability": "view",
      "type": "function"
    },
    {
      "constant": true,
      "inputs": [],
      "name": "merchandiseCount",
      "outputs": [
        {
          "name": "",
          "type": "uint256"
        }
      ],
      "payable": false,
      "stateMutability": "view",
      "type": "function"
    },
    {
      "constant": false,
      "inputs": [],
      "name": "renouncePauser",
      "outputs": [],
      "payable": false,
      "stateMutability": "nonpayable",
      "type": "function"
    },
    {
      "constant": true,
      "inputs": [
        {
          "name": "account",
          "type": "address"
        }
      ],
      "name": "balanceOf",
      "outputs": [
        {
          "name": "",
          "type": "uint256"
        }
      ],
      "payable": false,
      "stateMutability": "view",
      "type": "function"
    },
    {
      "constant": true,
      "inputs": [
        {
          "name": "",
          "type": "uint256"
        }
      ],
      "name": "merchandise",
      "outputs": [
        {
          "name": "name",
          "type": "string"
        },
        {
          "name": "description",
          "type": "string"
        },
        {
          "name": "quantity",
          "type": "uint256"
        },
        {
          "name": "price",
          "type": "uint256"
        },
        {
          "name": "imageUrl",
          "type": "string"
        },
        {
          "name": "isAvailable",
          "type": "bool"
        }
      ],
      "payable": false,
      "stateMutability": "view",
      "type": "function"
    },
    {
      "constant": false,
      "inputs": [
        {
          "name": "account",
          "type": "address"
        }
      ],
      "name": "addPauser",
      "outputs": [],
      "payable": false,
      "stateMutability": "nonpayable",
      "type": "function"
    },
    {
      "constant": false,
      "inputs": [],
      "name": "pause",
      "outputs": [],
      "payable": false,
      "stateMutability": "nonpayable",
      "type": "function"
    },
    {
      "constant": true,
      "inputs": [],
      "name": "owner",
      "outputs": [
        {
          "name": "",
          "type": "address"
        }
      ],
      "payable": false,
      "stateMutability": "view",
      "type": "function"
    },
    {
      "constant": true,
      "inputs": [],
      "name": "symbol",
      "outputs": [
        {
          "name": "",
          "type": "string"
        }
      ],
      "payable": false,
      "stateMutability": "view",
      "type": "function"
    },
    {
      "constant": false,
      "inputs": [
        {
          "name": "account",
          "type": "address"
        }
      ],
      "name": "addMinter",
      "outputs": [],
      "payable": false,
      "stateMutability": "nonpayable",
      "type": "function"
    },
    {
      "constant": false,
      "inputs": [],
      "name": "renounceMinter",
      "outputs": [],
      "payable": false,
      "stateMutability": "nonpayable",
      "type": "function"
    },
    {
      "constant": false,
      "inputs": [
        {
          "name": "spender",
          "type": "address"
        },
        {
          "name": "subtractedValue",
          "type": "uint256"
        }
      ],
      "name": "decreaseAllowance",
      "outputs": [
        {
          "name": "",
          "type": "bool"
        }
      ],
      "payable": false,
      "stateMutability": "nonpayable",
      "type": "function"
    },
    {
      "constant": true,
      "inputs": [
        {
          "name": "account",
          "type": "address"
        }
      ],
      "name": "isMinter",
      "outputs": [
        {
          "name": "",
          "type": "bool"
        }
      ],
      "payable": false,
      "stateMutability": "view",
      "type": "function"
    },
    {
      "constant": true,
      "inputs": [
        {
          "name": "owner",
          "type": "address"
        },
        {
          "name": "spender",
          "type": "address"
        }
      ],
      "name": "allowance",
      "outputs": [
        {
          "name": "",
          "type": "uint256"
        }
      ],
      "payable": false,
      "stateMutability": "view",
      "type": "function"
    },
    {
      "constant": true,
      "inputs": [],
      "name": "bio",
      "outputs": [
        {
          "name": "",
          "type": "string"
        }
      ],
      "payable": false,
      "stateMutability": "view",
      "type": "function"
    },
    {
      "inputs": [
        {
          "name": "_name",
          "type": "string"
        },
        {
          "name": "_symbol",
          "type": "string"
        },
        {
          "name": "_decimals",
          "type": "uint8"
        },
        {
          "name": "_genre",
          "type": "string"
        },
        {
          "name": "_bio",
          "type": "string"
        },
        {
          "name": "_location",
          "type": "string"
        },
        {
          "name": "_imageHash",
          "type": "string"
        }
      ],
      "payable": false,
      "stateMutability": "nonpayable",
      "type": "constructor"
    },
    {
      "payable": false,
      "stateMutability": "nonpayable",
      "type": "fallback"
    },
    {
      "anonymous": false,
      "inputs": [
        {
          "indexed": false,
          "name": "name",
          "type": "string"
        },
        {
          "indexed": false,
          "name": "newProjectAddress",
          "type": "address"
        },
        {
          "indexed": false,
          "name": "ownerAddress",
          "type": "address"
        },
        {
          "indexed": false,
          "name": "ownerBalance",
          "type": "uint256"
        }
      ],
      "name": "LogProject",
      "type": "event"
    },
    {
      "anonymous": false,
      "inputs": [
        {
          "indexed": false,
          "name": "id",
          "type": "uint256"
        },
        {
          "indexed": false,
          "name": "name",
          "type": "string"
        }
      ],
      "name": "LogMerchAdded",
      "type": "event"
    },
    {
      "anonymous": false,
      "inputs": [
        {
          "indexed": false,
          "name": "account",
          "type": "address"
        }
      ],
      "name": "Paused",
      "type": "event"
    },
    {
      "anonymous": false,
      "inputs": [
        {
          "indexed": false,
          "name": "account",
          "type": "address"
        }
      ],
      "name": "Unpaused",
      "type": "event"
    },
    {
      "anonymous": false,
      "inputs": [
        {
          "indexed": true,
          "name": "account",
          "type": "address"
        }
      ],
      "name": "PauserAdded",
      "type": "event"
    },
    {
      "anonymous": false,
      "inputs": [
        {
          "indexed": true,
          "name": "account",
          "type": "address"
        }
      ],
      "name": "PauserRemoved",
      "type": "event"
    },
    {
      "anonymous": false,
      "inputs": [
        {
          "indexed": true,
          "name": "account",
          "type": "address"
        }
      ],
      "name": "MinterAdded",
      "type": "event"
    },
    {
      "anonymous": false,
      "inputs": [
        {
          "indexed": true,
          "name": "account",
          "type": "address"
        }
      ],
      "name": "MinterRemoved",
      "type": "event"
    },
    {
      "anonymous": false,
      "inputs": [
        {
          "indexed": true,
          "name": "from",
          "type": "address"
        },
        {
          "indexed": true,
          "name": "to",
          "type": "address"
        },
        {
          "indexed": false,
          "name": "value",
          "type": "uint256"
        }
      ],
      "name": "Transfer",
      "type": "event"
    },
    {
      "anonymous": false,
      "inputs": [
        {
          "indexed": true,
          "name": "owner",
          "type": "address"
        },
        {
          "indexed": true,
          "name": "spender",
          "type": "address"
        },
        {
          "indexed": false,
          "name": "value",
          "type": "uint256"
        }
      ],
      "name": "Approval",
      "type": "event"
    },
    {
      "constant": true,
      "inputs": [],
      "name": "fetchArtist",
      "outputs": [
        {
          "name": "name",
          "type": "string"
        },
        {
          "name": "owner",
          "type": "address"
        },
        {
          "name": "genre",
          "type": "string"
        },
        {
          "name": "bio",
          "type": "string"
        },
        {
          "name": "location",
          "type": "string"
        },
        {
          "name": "imageHash",
          "type": "string"
        },
        {
          "name": "projectCount",
          "type": "uint256"
        },
        {
          "name": "merchCount",
          "type": "uint256"
        }
      ],
      "payable": false,
      "stateMutability": "view",
      "type": "function"
    },
    {
      "constant": false,
      "inputs": [
        {
          "name": "_name",
          "type": "string"
        },
        {
          "name": "_desc",
          "type": "string"
        },
        {
          "name": "_quantity",
          "type": "uint256"
        },
        {
          "name": "_price",
          "type": "uint256"
        },
        {
          "name": "_imageUrl",
          "type": "string"
        }
      ],
      "name": "addMerch",
      "outputs": [],
      "payable": false,
      "stateMutability": "nonpayable",
      "type": "function"
    },
    {
      "constant": false,
      "inputs": [
        {
          "name": "id",
          "type": "uint256"
        }
      ],
      "name": "makeMerchAvailable",
      "outputs": [],
      "payable": false,
      "stateMutability": "nonpayable",
      "type": "function"
    },
    {
      "constant": false,
      "inputs": [
        {
          "name": "id",
          "type": "uint256"
        }
      ],
      "name": "makeMerchUnavailable",
      "outputs": [],
      "payable": false,
      "stateMutability": "nonpayable",
      "type": "function"
    },
    {
      "constant": false,
      "inputs": [
        {
          "name": "id",
          "type": "uint256"
        },
        {
          "name": "qty",
          "type": "uint256"
        },
        {
          "name": "total",
          "type": "uint256"
        }
      ],
      "name": "buyMerch",
      "outputs": [],
      "payable": false,
      "stateMutability": "nonpayable",
      "type": "function"
    },
    {
      "constant": false,
      "inputs": [
        {
          "name": "recipient",
          "type": "address"
        },
        {
          "name": "amount",
          "type": "uint256"
        }
      ],
      "name": "transfer",
      "outputs": [
        {
          "name": "",
          "type": "bool"
        }
      ],
      "payable": false,
      "stateMutability": "nonpayable",
      "type": "function"
    },
    {
      "constant": true,
      "inputs": [
        {
          "name": "merchId",
          "type": "uint256"
        }
      ],
      "name": "getMerch",
      "outputs": [
        {
          "name": "name",
          "type": "string"
        },
        {
          "name": "description",
          "type": "string"
        },
        {
          "name": "quantity",
          "type": "uint256"
        },
        {
          "name": "price",
          "type": "uint256"
        },
        {
          "name": "imageUrl",
          "type": "string"
        },
        {
          "name": "isAvailable",
          "type": "bool"
        }
      ],
      "payable": false,
      "stateMutability": "view",
      "type": "function"
    },
    {
      "constant": false,
      "inputs": [
        {
          "name": "_rate",
          "type": "uint256"
        },
        {
          "name": "_cap",
          "type": "uint256"
        },
        {
          "name": "_name",
          "type": "string"
        },
        {
          "name": "_description",
          "type": "string"
        },
        {
          "name": "_imageHash",
          "type": "string"
        }
      ],
      "name": "createProject",
      "outputs": [
        {
          "name": "",
          "type": "address"
        }
      ],
      "payable": false,
      "stateMutability": "nonpayable",
      "type": "function"
    },
    {
      "constant": true,
      "inputs": [
        {
          "name": "projectId",
          "type": "uint256"
        }
      ],
      "name": "getProject",
      "outputs": [
        {
          "name": "",
          "type": "address"
        }
      ],
      "payable": false,
      "stateMutability": "view",
      "type": "function"
    }
  ],
  "bytecode": "0x608060405264174876e8006009553480156200001a57600080fd5b5060405162004ca338038062004ca3833981018060405260e08110156200004057600080fd5b8101908080516401000000008111156200005957600080fd5b820160208101848111156200006d57600080fd5b81516401000000008111828201871017156200008857600080fd5b50509291906020018051640100000000811115620000a557600080fd5b82016020810184811115620000b957600080fd5b8151640100000000811182820187101715620000d457600080fd5b50506020820151604090920180519194929391640100000000811115620000fa57600080fd5b820160208101848111156200010e57600080fd5b81516401000000008111828201871017156200012957600080fd5b505092919060200180516401000000008111156200014657600080fd5b820160208101848111156200015a57600080fd5b81516401000000008111828201871017156200017557600080fd5b505092919060200180516401000000008111156200019257600080fd5b82016020810184811115620001a657600080fd5b8151640100000000811182820187101715620001c157600080fd5b50509291906020018051640100000000811115620001de57600080fd5b82016020810184811115620001f257600080fd5b81516401000000008111828201871017156200020d57600080fd5b5050895190935089925088915087906200022f906000906020860190620004d1565b50815162000245906001906020850190620004d1565b506002805460ff191660ff92909216919091179055506200026f90503362000306602090811b901c565b62000280336200035860201b60201c565b600880546001600160a81b03191661010032021790558351620002ab90600a906020870190620004d1565b508251620002c190600b906020860190620004d1565b508151620002d790600c906020850190620004d1565b508051620002ed90600d906020840190620004d1565b505060006011819055600f555062000576945050505050565b62000321816006620003aa60201b620030081790919060201c565b6040516001600160a01b038216907f6ae172837ea30b801fbfcdd4108aa1d5bf8ff775444fd70256b44e6bf3dfc3f690600090a250565b62000373816007620003aa60201b620030081790919060201c565b6040516001600160a01b038216907f6719d08c1888103bea251a4ed56406bd0c3e69723c8a1686e017e7bbe159b6f890600090a250565b620003bc82826200044e60201b60201c565b156200042957604080517f08c379a000000000000000000000000000000000000000000000000000000000815260206004820152601f60248201527f526f6c65733a206163636f756e7420616c72656164792068617320726f6c6500604482015290519081900360640190fd5b6001600160a01b0316600090815260209190915260409020805460ff19166001179055565b60006001600160a01b038216620004b1576040517f08c379a000000000000000000000000000000000000000000000000000000000815260040180806020018281038252602281526020018062004c816022913960400191505060405180910390fd5b506001600160a01b03166000908152602091909152604090205460ff1690565b828054600181600116156101000203166002900490600052602060002090601f016020900481019282601f106200051457805160ff191683800117855562000544565b8280016001018555821562000544579182015b828111156200054457825182559160200191906001019062000527565b506200055292915062000556565b5090565b6200057391905b808211156200055257600081556001016200055d565b90565b6146fb80620005866000396000f3fe60806040523480156200001157600080fd5b5060043610620002f25760003560e01c80636ef8d66d11620001a1578063a457c2d711620000ed578063c1162b4a1162000099578063dd62ed3e116200007b578063dd62ed3e1462000e74578063f0f3f2c81462000ea5578063f516b4221462000ec557620002f2565b8063c1162b4a1462000c88578063c32378d41462000e5457620002f2565b8063aa271e1a11620000cf578063aa271e1a14620009ef578063aaa69d3f1462000a18578063be2a21b81462000a3857620002f2565b8063a457c2d71462000991578063a9059cbb14620009c057620002f2565b80638456cb59116200014d57806395d89b41116200012f57806395d89b411462000954578063983b2d56146200095e57806398650275146200098757620002f2565b80638456cb5914620009405780638da5cb5b146200094a57620002f2565b806379210118116200018357806379210118146200076557806382dc1ec414620008eb57806383d5926f146200091457620002f2565b80636ef8d66d146200073257806370a08231146200073c57620002f2565b8063378dc3dc116200026157806351605d80116200020d5780635c975abb11620001ef5780635c975abb14620005525780635f632d69146200055c57806361e5dce3146200072857620002f2565b806351605d80146200053e578063516f279e146200054857620002f2565b80633f4ba83a11620002435780633f4ba83a14620004dc57806340c10f1914620004e657806346fbf68e146200051557620002f2565b8063378dc3dc14620004a35780633950935114620004ad57620002f2565b806317de3a4111620002c157806323b872dd11620002a357806323b872dd1462000440578063313ce567146200047957806336fbad26146200049957620002f2565b806317de3a41146200041a57806318160ddd146200042457620002f2565b806306fdde0314620002f757806307904f071462000379578063095ea7b3146200039b578063107046bd14620003de575b600080fd5b6200030162000ecf565b6040805160208082528351818301528351919283929083019185019080838360005b838110156200033d57818101518382015260200162000323565b50505050905090810190601f1680156200036b5780820380516001836020036101000a031916815260200191505b509250505060405180910390f35b62000399600480360360208110156200039157600080fd5b503562000f6a565b005b620003ca60048036036040811015620003b357600080fd5b506001600160a01b03813516906020013562000fc6565b604080519115158252519081900360200190f35b620003fe60048036036020811015620003f657600080fd5b503562001038565b604080516001600160a01b039092168252519081900360200190f35b6200030162001053565b6200042e620010e5565b60408051918252519081900360200190f35b620003ca600480360360608110156200045857600080fd5b506001600160a01b03813581169160208101359091169060400135620010eb565b620004836200115f565b6040805160ff9092168252519081900360200190f35b6200042e62001168565b6200042e6200116e565b620003ca60048036036040811015620004c557600080fd5b506001600160a01b03813516906020013562001174565b62000399620011df565b620003ca60048036036040811015620004fe57600080fd5b506001600160a01b038135169060200135620012c4565b620003ca600480360360208110156200052d57600080fd5b50356001600160a01b031662001326565b6200030162001341565b620003016200139f565b620003ca620013fd565b620003fe600480360360a08110156200057457600080fd5b8135916020810135918101906060810160408201356401000000008111156200059c57600080fd5b820183602082011115620005af57600080fd5b80359060200191846001830284011164010000000083111715620005d257600080fd5b91908080601f01602080910402602001604051908101604052809392919081815260200183838082843760009201919091525092959493602081019350359150506401000000008111156200062657600080fd5b8201836020820111156200063957600080fd5b803590602001918460018302840111640100000000831117156200065c57600080fd5b91908080601f0160208091040260200160405190810160405280939291908181526020018383808284376000920191909152509295949360208101935035915050640100000000811115620006b057600080fd5b820183602082011115620006c357600080fd5b80359060200191846001830284011164010000000083111715620006e657600080fd5b91908080601f01602080910402602001604051908101604052809392919081815260200183838082843760009201919091525092955062001406945050505050565b6200042e620017d5565b62000399620017db565b6200042e600480360360208110156200075457600080fd5b50356001600160a01b0316620017e8565b62000785600480360360208110156200077d57600080fd5b503562001803565b604051808060200180602001878152602001868152602001806020018515151515815260200184810384528a818151815260200191508051906020019080838360005b83811015620007e2578181015183820152602001620007c8565b50505050905090810190601f168015620008105780820380516001836020036101000a031916815260200191505b5084810383528951815289516020918201918b019080838360005b83811015620008455781810151838201526020016200082b565b50505050905090810190601f168015620008735780820380516001836020036101000a031916815260200191505b50848103825286518152865160209182019188019080838360005b83811015620008a85781810151838201526020016200088e565b50505050905090810190601f168015620008d65780820380516001836020036101000a031916815260200191505b50995050505050505050505060405180910390f35b62000399600480360360208110156200090357600080fd5b50356001600160a01b031662001a01565b62000399600480360360608110156200092c57600080fd5b508035906020810135906040013562001a5a565b6200039962001c4f565b620003fe62001d38565b6200030162001d4c565b62000399600480360360208110156200097657600080fd5b50356001600160a01b031662001daf565b6200039962001e05565b620003ca60048036036040811015620009a957600080fd5b506001600160a01b03813516906020013562001e10565b620003ca60048036036040811015620009d857600080fd5b506001600160a01b03813516906020013562001e7b565b620003ca6004803603602081101562000a0757600080fd5b50356001600160a01b031662001e8a565b620003996004803603602081101562000a3057600080fd5b503562001e9f565b62000a4262001efa565b6040518080602001896001600160a01b03166001600160a01b031681526020018060200180602001806020018060200188815260200187815260200186810386528e818151815260200191508051906020019080838360005b8381101562000ab557818101518382015260200162000a9b565b50505050905090810190601f16801562000ae35780820380516001836020036101000a031916815260200191505b5086810385528c5181528c516020918201918e019080838360005b8381101562000b1857818101518382015260200162000afe565b50505050905090810190601f16801562000b465780820380516001836020036101000a031916815260200191505b5086810384528b5181528b516020918201918d019080838360005b8381101562000b7b57818101518382015260200162000b61565b50505050905090810190601f16801562000ba95780820380516001836020036101000a031916815260200191505b5086810383528a5181528a516020918201918c019080838360005b8381101562000bde57818101518382015260200162000bc4565b50505050905090810190601f16801562000c0c5780820380516001836020036101000a031916815260200191505b5086810382528951815289516020918201918b019080838360005b8381101562000c4157818101518382015260200162000c27565b50505050905090810190601f16801562000c6f5780820380516001836020036101000a031916815260200191505b509d505050505050505050505050505060405180910390f35b62000399600480360360a081101562000ca057600080fd5b81019060208101813564010000000081111562000cbc57600080fd5b82018360208201111562000ccf57600080fd5b8035906020019184600183028401116401000000008311171562000cf257600080fd5b91908080601f016020809104026020016040519081016040528093929190818152602001838380828437600092019190915250929594936020810193503591505064010000000081111562000d4657600080fd5b82018360208201111562000d5957600080fd5b8035906020019184600183028401116401000000008311171562000d7c57600080fd5b91908080601f016020809104026020016040519081016040528093929190818152602001838380828437600092019190915250929584359560208601359591945092506060810191506040013564010000000081111562000ddc57600080fd5b82018360208201111562000def57600080fd5b8035906020019184600183028401116401000000008311171562000e1257600080fd5b91908080601f0160208091040260200160405190810160405280939291908181526020018383808284376000920191909152509295506200248f945050505050565b620007856004803603602081101562000e6c57600080fd5b503562002617565b6200042e6004803603604081101562000e8c57600080fd5b506001600160a01b038135811691602001351662002877565b620003fe6004803603602081101562000ebd57600080fd5b5035620028a2565b62000301620028bd565b60008054604080516020601f600260001961010060018816150201909516949094049384018190048102820181019092528281526060939092909183018282801562000f5f5780601f1062000f335761010080835404028352916020019162000f5f565b820191906000526020600020905b81548152906001019060200180831162000f4157829003601f168201915b505050505090505b90565b60085461010090046001600160a01b0316331462000f8757600080fd5b60008181526010602052604090206005015460ff16151560011462000fab57600080fd5b6000908152601060205260409020600501805460ff19169055565b60085460009060ff1615620010255760408051600160e51b62461bcd02815260206004820152601060248201527f5061757361626c653a2070617573656400000000000000000000000000000000604482015290519081900360640190fd5b6200103183836200291b565b9392505050565b600e602052600090815260409020546001600160a01b031681565b600a805460408051602060026001851615610100026000190190941693909304601f81018490048402820184019092528181529291830182828015620010dd5780601f10620010b157610100808354040283529160200191620010dd565b820191906000526020600020905b815481529060010190602001808311620010bf57829003601f168201915b505050505081565b60055490565b60085460009060ff16156200114a5760408051600160e51b62461bcd02815260206004820152601060248201527f5061757361626c653a2070617573656400000000000000000000000000000000604482015290519081900360640190fd5b620011578484846200292a565b949350505050565b60025460ff1690565b600f5481565b60095481565b60085460009060ff1615620011d35760408051600160e51b62461bcd02815260206004820152601060248201527f5061757361626c653a2070617573656400000000000000000000000000000000604482015290519081900360640190fd5b62001031838362002987565b620011ea3362001326565b6200122a57604051600160e51b62461bcd028152600401808060200182810382526030815260200180620045c26030913960400191505060405180910390fd5b60085460ff16620012855760408051600160e51b62461bcd02815260206004820152601460248201527f5061757361626c653a206e6f7420706175736564000000000000000000000000604482015290519081900360640190fd5b6008805460ff191690556040805133815290517f5db9ee0a495bf2e6ff9c91a7834c1ba4fdd244a5e8aa4e537bd38aeae4b073aa9181900360200190a1565b6000620012d13362001e8a565b6200131157604051600160e51b62461bcd028152600401808060200182810382526030815260200180620046146030913960400191505060405180910390fd5b6200131d8383620029c6565b50600192915050565b60006200133b60078363ffffffff62002ac016565b92915050565b600d805460408051602060026001851615610100026000190190941693909304601f81018490048402820184019092528181529291830182828015620010dd5780601f10620010b157610100808354040283529160200191620010dd565b600c805460408051602060026001851615610100026000190190941693909304601f81018490048402820184019092528181529291830182828015620010dd5780601f10620010b157610100808354040283529160200191620010dd565b60085460ff1690565b600080306001600160a01b03166370a08231306001600160a01b0316638da5cb5b6040518163ffffffff1660e01b815260040160206040518083038186803b1580156200145257600080fd5b505afa15801562001467573d6000803e3d6000fd5b505050506040513d60208110156200147e57600080fd5b50516040805163ffffffff841660e01b81526001600160a01b039092166004830152516024808301926020929190829003018186803b158015620014c157600080fd5b505afa158015620014d6573d6000803e3d6000fd5b505050506040513d6020811015620014ed57600080fd5b50516040519091506000908890339030908a908a908a908a9062001511906200308f565b80888152602001876001600160a01b03166001600160a01b03168152602001866001600160a01b03166001600160a01b03168152602001858152602001806020018060200180602001848103845287818151815260200191508051906020019080838360005b838110156200159157818101518382015260200162001577565b50505050905090810190601f168015620015bf5780820380516001836020036101000a031916815260200191505b50848103835286518152865160209182019188019080838360005b83811015620015f4578181015183820152602001620015da565b50505050905090810190601f168015620016225780820380516001836020036101000a031916815260200191505b50848103825285518152855160209182019187019080838360005b83811015620016575781810151838201526020016200163d565b50505050905090810190601f168015620016855780820380516001836020036101000a031916815260200191505b509a5050505050505050505050604051809103906000f080158015620016af573d6000803e3d6000fd5b50600f80546000818152600e6020908152604080832080547fffffffffffffffffffffffff0000000000000000000000000000000000000000166001600160a01b0388811691821790925586546001019096556008548251808501979097526101009004169085018190526060850188905260808086528c51908601528b51959650869593947f6ca8a353551ce90d4eced0f252b7c7d0fc2925eae61db38dc59a0c0a014dab2a948d9488948b9392839260a0840192890191908190849084905b838110156200178a57818101518382015260200162001770565b50505050905090810190601f168015620017b85780820380516001836020036101000a031916815260200191505b509550505050505060405180910390a15098975050505050505050565b60115481565b620017e63362002b2c565b565b6001600160a01b031660009081526003602052604090205490565b60106020908152600091825260409182902080548351601f600260001961010060018616150201909316929092049182018490048402810184019094528084529092918391908301828280156200189e5780601f1062001872576101008083540402835291602001916200189e565b820191906000526020600020905b8154815290600101906020018083116200188057829003601f168201915b505050505090806001018054600181600116156101000203166002900480601f016020809104026020016040519081016040528092919081815260200182805460018160011615610100020316600290048015620019405780601f10620019145761010080835404028352916020019162001940565b820191906000526020600020905b8154815290600101906020018083116200192257829003601f168201915b505050505090806002015490806003015490806004018054600181600116156101000203166002900480601f016020809104026020016040519081016040528092919081815260200182805460018160011615610100020316600290048015620019ee5780601f10620019c257610100808354040283529160200191620019ee565b820191906000526020600020905b815481529060010190602001808311620019d057829003601f168201915b5050506005909301549192505060ff1686565b62001a0c3362001326565b62001a4c57604051600160e51b62461bcd028152600401808060200182810382526030815260200180620045c26030913960400191505060405180910390fd5b62001a578162002b76565b50565b6000838152601060205260409020600281015483111562001a7a57600080fd5b600581015460ff16151560011462001a9157600080fd5b604080517f70a08231000000000000000000000000000000000000000000000000000000008152336004820152905160009130916370a0823191602480820192602092909190829003018186803b15801562001aec57600080fd5b505afa15801562001b01573d6000803e3d6000fd5b505050506040513d602081101562001b1857600080fd5b5051905082811062001c4857306001600160a01b031663a9059cbb306001600160a01b0316638da5cb5b6040518163ffffffff1660e01b815260040160206040518083038186803b15801562001b6d57600080fd5b505afa15801562001b82573d6000803e3d6000fd5b505050506040513d602081101562001b9957600080fd5b50516040805163ffffffff841660e01b81526001600160a01b039092166004830152602482018790525160448083019260209291908290030181600087803b15801562001be557600080fd5b505af115801562001bfa573d6000803e3d6000fd5b505050506040513d602081101562001c1157600080fd5b5050600282018054859003815533600090815260068401602052604090208054860190555462001c485760058201805460ff191690555b5050505050565b62001c5a3362001326565b62001c9a57604051600160e51b62461bcd028152600401808060200182810382526030815260200180620045c26030913960400191505060405180910390fd5b60085460ff161562001cf65760408051600160e51b62461bcd02815260206004820152601060248201527f5061757361626c653a2070617573656400000000000000000000000000000000604482015290519081900360640190fd5b6008805460ff191660011790556040805133815290517f62e78cea01bee320cd4e420270b5ea74000d11b0c9f74754ebdbfc544b05a2589181900360200190a1565b60085461010090046001600160a01b031681565b60018054604080516020601f6002600019610100878916150201909516949094049384018190048102820181019092528281526060939092909183018282801562000f5f5780601f1062000f335761010080835404028352916020019162000f5f565b62001dba3362001e8a565b62001dfa57604051600160e51b62461bcd028152600401808060200182810382526030815260200180620046146030913960400191505060405180910390fd5b62001a578162002bc0565b620017e63362002c0a565b60085460009060ff161562001e6f5760408051600160e51b62461bcd02815260206004820152601060248201527f5061757361626c653a2070617573656400000000000000000000000000000000604482015290519081900360640190fd5b62001031838362002c54565b60006200131d32848462002c93565b60006200133b60068363ffffffff62002ac016565b60085461010090046001600160a01b0316331462001ebc57600080fd5b60008181526010602052604090206005015460ff161562001edc57600080fd5b6000908152601060205260409020600501805460ff19166001179055565b60606000606080606080600080306001600160a01b0316638da5cb5b6040518163ffffffff1660e01b815260040160206040518083038186803b15801562001f4157600080fd5b505afa15801562001f56573d6000803e3d6000fd5b505050506040513d602081101562001f6d57600080fd5b5051604080517f17de3a41000000000000000000000000000000000000000000000000000000008152905191985030916317de3a4191600480820192600092909190829003018186803b15801562001fc457600080fd5b505afa15801562001fd9573d6000803e3d6000fd5b505050506040513d6000823e601f3d908101601f1916820160405260208110156200200357600080fd5b8101908080516401000000008111156200201c57600080fd5b820160208101848111156200203057600080fd5b81516401000000008111828201871017156200204b57600080fd5b50509291905050509550306001600160a01b031663f516b4226040518163ffffffff1660e01b815260040160006040518083038186803b1580156200208f57600080fd5b505afa158015620020a4573d6000803e3d6000fd5b505050506040513d6000823e601f3d908101601f191682016040526020811015620020ce57600080fd5b810190808051640100000000811115620020e757600080fd5b82016020810184811115620020fb57600080fd5b81516401000000008111828201871017156200211657600080fd5b50509291905050509450306001600160a01b031663516f279e6040518163ffffffff1660e01b815260040160006040518083038186803b1580156200215a57600080fd5b505afa1580156200216f573d6000803e3d6000fd5b505050506040513d6000823e601f3d908101601f1916820160405260208110156200219957600080fd5b810190808051640100000000811115620021b257600080fd5b82016020810184811115620021c657600080fd5b8151640100000000811182820187101715620021e157600080fd5b50509291905050509350306001600160a01b03166351605d806040518163ffffffff1660e01b815260040160006040518083038186803b1580156200222557600080fd5b505afa1580156200223a573d6000803e3d6000fd5b505050506040513d6000823e601f3d908101601f1916820160405260208110156200226457600080fd5b8101908080516401000000008111156200227d57600080fd5b820160208101848111156200229157600080fd5b8151640100000000811182820187101715620022ac57600080fd5b50509291905050509250306001600160a01b03166336fbad266040518163ffffffff1660e01b815260040160206040518083038186803b158015620022f057600080fd5b505afa15801562002305573d6000803e3d6000fd5b505050506040513d60208110156200231c57600080fd5b5051604080517f61e5dce3000000000000000000000000000000000000000000000000000000008152905191935030916361e5dce391600480820192602092909190829003018186803b1580156200237357600080fd5b505afa15801562002388573d6000803e3d6000fd5b505050506040513d60208110156200239f57600080fd5b5051604080517f06fdde03000000000000000000000000000000000000000000000000000000008152905191925030916306fdde0391600480820192600092909190829003018186803b158015620023f657600080fd5b505afa1580156200240b573d6000803e3d6000fd5b505050506040513d6000823e601f3d908101601f1916820160405260208110156200243557600080fd5b8101908080516401000000008111156200244e57600080fd5b820160208101848111156200246257600080fd5b81516401000000008111828201871017156200247d57600080fd5b50909b50505050509091929394959697565b620024996200309d565b506040805160c08101825286815260208082018790528183018690526060820185905260808201849052600160a083015260115460008181526010835293909320825180519394938593620024f3928492910190620030d5565b5060208281015180516200250e9260018501920190620030d5565b5060408201516002820155606082015160038201556080820151805162002540916004840191602090910190620030d5565b5060a091909101516005909101805460ff1916911515919091179055601180546001019055815160408051838152602080820183815284519383019390935283517fdc7b12f3a3e657a393c15b8829b0691514c35869915f01e723dbb8bcec35c65a9486949093929091606084019185019080838360005b83811015620025d2578181015183820152602001620025b8565b50505050905090810190601f168015620026005780820380516001836020036101000a031916815260200191505b50935050505060405180910390a150505050505050565b606080600080606060006200262b6200309d565b6000888152601060209081526040918290208251815460026001821615610100026000190190911604601f8101849004909302810160e090810190945260c08101838152909391928492849190840182828015620026cd5780601f10620026a157610100808354040283529160200191620026cd565b820191906000526020600020905b815481529060010190602001808311620026af57829003601f168201915b50505050508152602001600182018054600181600116156101000203166002900480601f016020809104026020016040519081016040528092919081815260200182805460018160011615610100020316600290048015620027735780601f10620027475761010080835404028352916020019162002773565b820191906000526020600020905b8154815290600101906020018083116200275557829003601f168201915b505050505081526020016002820154815260200160038201548152602001600482018054600181600116156101000203166002900480601f0160208091040260200160405190810160405280929190818152602001828054600181600116156101000203166002900480156200282d5780601f1062002801576101008083540402835291602001916200282d565b820191906000526020600020905b8154815290600101906020018083116200280f57829003601f168201915b50505091835250506005919091015460ff16151560209182015281519082015160408301516060840151608085015160a090950151939d929c50909a509850919650945092505050565b6001600160a01b03918216600090815260046020908152604080832093909416825291909152205490565b6000908152600e60205260409020546001600160a01b031690565b600b805460408051602060026001851615610100026000190190941693909304601f81018490048402820184019092528181529291830182828015620010dd5780601f10620010b157610100808354040283529160200191620010dd565b60006200131d33848462002de5565b60006200293984848462002c93565b6001600160a01b0384166000908152600460209081526040808320338085529252909120546200297d91869162002977908663ffffffff62002edb16565b62002de5565b5060019392505050565b3360008181526004602090815260408083206001600160a01b038716845290915281205490916200131d91859062002977908663ffffffff62002f3c16565b6001600160a01b03821662002a255760408051600160e51b62461bcd02815260206004820152601f60248201527f45524332303a206d696e7420746f20746865207a65726f206164647265737300604482015290519081900360640190fd5b60055462002a3a908263ffffffff62002f3c16565b6005556001600160a01b03821660009081526003602052604090205462002a68908263ffffffff62002f3c16565b6001600160a01b03831660008181526003602090815260408083209490945583518581529351929391927fddf252ad1be2c89b69c2b068fc378daa952ba7f163c4a11628f55a4df523b3ef9281900390910190a35050565b60006001600160a01b03821662002b0c57604051600160e51b62461bcd028152600401808060200182810382526022815260200180620046656022913960400191505060405180910390fd5b506001600160a01b03166000908152602091909152604090205460ff1690565b62002b3f60078263ffffffff62002f9a16565b6040516001600160a01b038216907fcd265ebaf09df2871cc7bd4133404a235ba12eff2041bb89d9c714a2621c7c7e90600090a250565b62002b8960078263ffffffff6200300816565b6040516001600160a01b038216907f6719d08c1888103bea251a4ed56406bd0c3e69723c8a1686e017e7bbe159b6f890600090a250565b62002bd360068263ffffffff6200300816565b6040516001600160a01b038216907f6ae172837ea30b801fbfcdd4108aa1d5bf8ff775444fd70256b44e6bf3dfc3f690600090a250565b62002c1d60068263ffffffff62002f9a16565b6040516001600160a01b038216907fe94479a9f7e1952cc78f2d6baab678adc1b772d936c6583def489e524cb6669290600090a250565b3360008181526004602090815260408083206001600160a01b038716845290915281205490916200131d91859062002977908663ffffffff62002edb16565b6001600160a01b03831662002cdd57604051600160e51b62461bcd028152600401808060200182810382526025815260200180620046876025913960400191505060405180910390fd5b6001600160a01b03821662002d2757604051600160e51b62461bcd0281526004018080602001828103825260238152602001806200459f6023913960400191505060405180910390fd5b6001600160a01b03831660009081526003602052604090205462002d52908263ffffffff62002edb16565b6001600160a01b03808516600090815260036020526040808220939093559084168152205462002d89908263ffffffff62002f3c16565b6001600160a01b0380841660008181526003602090815260409182902094909455805185815290519193928716927fddf252ad1be2c89b69c2b068fc378daa952ba7f163c4a11628f55a4df523b3ef92918290030190a3505050565b6001600160a01b03831662002e2f57604051600160e51b62461bcd028152600401808060200182810382526024815260200180620046ac6024913960400191505060405180910390fd5b6001600160a01b03821662002e7957604051600160e51b62461bcd028152600401808060200182810382526022815260200180620045f26022913960400191505060405180910390fd5b6001600160a01b03808416600081815260046020908152604080832094871680845294825291829020859055815185815291517f8c5be1e5ebec7d5bd14f71427d1e84f3dd0314c0f7b2291e5b200ac8c7c3b9259281900390910190a3505050565b60008282111562002f365760408051600160e51b62461bcd02815260206004820152601e60248201527f536166654d6174683a207375627472616374696f6e206f766572666c6f770000604482015290519081900360640190fd5b50900390565b600082820183811015620010315760408051600160e51b62461bcd02815260206004820152601b60248201527f536166654d6174683a206164646974696f6e206f766572666c6f770000000000604482015290519081900360640190fd5b62002fa6828262002ac0565b62002fe657604051600160e51b62461bcd028152600401808060200182810382526021815260200180620046446021913960400191505060405180910390fd5b6001600160a01b0316600090815260209190915260409020805460ff19169055565b62003014828262002ac0565b156200306a5760408051600160e51b62461bcd02815260206004820152601f60248201527f526f6c65733a206163636f756e7420616c72656164792068617320726f6c6500604482015290519081900360640190fd5b6001600160a01b0316600090815260209190915260409020805460ff19166001179055565b611427806200317883390190565b6040518060c0016040528060608152602001606081526020016000815260200160008152602001606081526020016000151581525090565b828054600181600116156101000203166002900490600052602060002090601f016020900481019282601f106200311857805160ff191683800117855562003148565b8280016001018555821562003148579182015b82811115620031485782518255916020019190600101906200312b565b50620031569291506200315a565b5090565b62000f6791905b808211156200315657600081556001016200316156fe60806040523480156200001157600080fd5b506040516200142738038062001427833981018060405260e08110156200003757600080fd5b8151602083015160408401516060850151608086018051949693959294919392830192916401000000008111156200006e57600080fd5b820160208101848111156200008257600080fd5b81516401000000008111828201871017156200009d57600080fd5b50509291906020018051640100000000811115620000ba57600080fd5b82016020810184811115620000ce57600080fd5b8151640100000000811182820187101715620000e957600080fd5b505092919060200180516401000000008111156200010657600080fd5b820160208101848111156200011a57600080fd5b81516401000000008111828201871017156200013557600080fd5b505060016000559250859150889050878782620001b357604080517f08c379a000000000000000000000000000000000000000000000000000000000815260206004820152601460248201527f43726f776473616c653a20726174652069732030000000000000000000000000604482015290519081900360640190fd5b6001600160a01b03821662000214576040517f08c379a0000000000000000000000000000000000000000000000000000000008152600401808060200182810382526025815260200180620014026025913960400191505060405180910390fd5b6001600160a01b03811662000275576040517f08c379a0000000000000000000000000000000000000000000000000000000008152600401808060200182810382526024815260200180620013de6024913960400191505060405180910390fd5b600392909255600280546001600160a01b039283166001600160a01b03199182161790915560018054929093169116179055806200031457604080517f08c379a000000000000000000000000000000000000000000000000000000000815260206004820152601960248201527f43617070656443726f776473616c653a20636170206973203000000000000000604482015290519081900360640190fd5b600555600680546001600160a01b0319163317905582516200033e90600790602086019062000399565b5081516200035490600990602085019062000399565b5080516200036a90600890602084019062000399565b5050600a80546001600160a01b0319166001600160a01b039590951694909417909355506200043e9350505050565b828054600181600116156101000203166002900490600052602060002090601f016020900481019282601f10620003dc57805160ff19168380011785556200040c565b828001600101855582156200040c579182015b828111156200040c578251825591602001919060010190620003ef565b506200041a9291506200041e565b5090565b6200043b91905b808211156200041a576000815560010162000425565b90565b610f90806200044e6000396000f3fe6080604052600436106100d25760003560e01c806351605d801161007f5780638c3006c7116100595780638c3006c7146102515780638da5cb5b146103fc578063ec8ac4d814610411578063fc0c546a14610437576100d2565b806351605d8014610212578063521eb273146102275780637284e4161461023c576100d2565b80634042b66f116100b05780634042b66f146101a357806343bc1612146101b85780634f935945146101e9576100d2565b806306fdde03146100dd5780632c4e722e14610167578063355274ea1461018e575b6100db3361044c565b005b3480156100e957600080fd5b506100f2610553565b6040805160208082528351818301528351919283929083019185019080838360005b8381101561012c578181015183820152602001610114565b50505050905090810190601f1680156101595780820380516001836020036101000a031916815260200191505b509250505060405180910390f35b34801561017357600080fd5b5061017c6105e1565b60408051918252519081900360200190f35b34801561019a57600080fd5b5061017c6105e7565b3480156101af57600080fd5b5061017c6105ed565b3480156101c457600080fd5b506101cd6105f3565b604080516001600160a01b039092168252519081900360200190f35b3480156101f557600080fd5b506101fe610602565b604080519115158252519081900360200190f35b34801561021e57600080fd5b506100f2610616565b34801561023357600080fd5b506101cd610671565b34801561024857600080fd5b506100f2610680565b34801561025d57600080fd5b506102666106db565b604051808a6001600160a01b03166001600160a01b03168152602001806020018060200180602001898152602001886001600160a01b03166001600160a01b031681526020018781526020018681526020018515151515815260200184810384528c818151815260200191508051906020019080838360005b838110156102f75781810151838201526020016102df565b50505050905090810190601f1680156103245780820380516001836020036101000a031916815260200191505b5084810383528b5181528b516020918201918d019080838360005b8381101561035757818101518382015260200161033f565b50505050905090810190601f1680156103845780820380516001836020036101000a031916815260200191505b5084810382528a5181528a516020918201918c019080838360005b838110156103b757818101518382015260200161039f565b50505050905090810190601f1680156103e45780820380516001836020036101000a031916815260200191505b509c5050505050505050505050505060405180910390f35b34801561040857600080fd5b506101cd610c2b565b6100db6004803603602081101561042757600080fd5b50356001600160a01b031661044c565b34801561044357600080fd5b506101cd610c3a565b6000805460010190819055346104628382610c49565b600061046d82610cc4565b600454909150610483908363ffffffff610ce116565b6004556104908482610d45565b604080518381526020810183905281516001600160a01b0387169233927f6faf93231a456e552dbc9961f58d9713ee4f2e69d15f1975b050ef0911053a7b929081900390910190a36104e2848361054f565b6104ea610de4565b6104f4848361054f565b5050600054811461054f5760408051600160e51b62461bcd02815260206004820152601f60248201527f5265656e7472616e637947756172643a207265656e7472616e742063616c6c00604482015290519081900360640190fd5b5050565b6007805460408051602060026001851615610100026000190190941693909304601f810184900484028201840190925281815292918301828280156105d95780601f106105ae576101008083540402835291602001916105d9565b820191906000526020600020905b8154815290600101906020018083116105bc57829003601f168201915b505050505081565b60035490565b60055490565b60045490565b600a546001600160a01b031681565b600060055461060f6105ed565b1015905090565b6008805460408051602060026001851615610100026000190190941693909304601f810184900484028201840190925281815292918301828280156105d95780601f106105ae576101008083540402835291602001916105d9565b6002546001600160a01b031690565b6009805460408051602060026001851615610100026000190190941693909304601f810184900484028201840190925281815292918301828280156105d95780601f106105ae576101008083540402835291602001916105d9565b600060608060606000806000806000306001600160a01b0316638da5cb5b6040518163ffffffff1660e01b815260040160206040518083038186803b15801561072357600080fd5b505afa158015610737573d6000803e3d6000fd5b505050506040513d602081101561074d57600080fd5b5051604080517f06fdde030000000000000000000000000000000000000000000000000000000081529051919a5030916306fdde0391600480820192600092909190829003018186803b1580156107a357600080fd5b505afa1580156107b7573d6000803e3d6000fd5b505050506040513d6000823e601f3d908101601f1916820160405260208110156107e057600080fd5b8101908080516401000000008111156107f857600080fd5b8201602081018481111561080b57600080fd5b815164010000000081118282018710171561082557600080fd5b50509291905050509750306001600160a01b03166351605d806040518163ffffffff1660e01b815260040160006040518083038186803b15801561086857600080fd5b505afa15801561087c573d6000803e3d6000fd5b505050506040513d6000823e601f3d908101601f1916820160405260208110156108a557600080fd5b8101908080516401000000008111156108bd57600080fd5b820160208101848111156108d057600080fd5b81516401000000008111828201871017156108ea57600080fd5b50509291905050509650306001600160a01b0316637284e4166040518163ffffffff1660e01b815260040160006040518083038186803b15801561092d57600080fd5b505afa158015610941573d6000803e3d6000fd5b505050506040513d6000823e601f3d908101601f19168201604052602081101561096a57600080fd5b81019080805164010000000081111561098257600080fd5b8201602081018481111561099557600080fd5b81516401000000008111828201871017156109af57600080fd5b50509291905050509550306001600160a01b0316632c4e722e6040518163ffffffff1660e01b815260040160206040518083038186803b1580156109f257600080fd5b505afa158015610a06573d6000803e3d6000fd5b505050506040513d6020811015610a1c57600080fd5b5051604080517f521eb2730000000000000000000000000000000000000000000000000000000081529051919650309163521eb27391600480820192602092909190829003018186803b158015610a7257600080fd5b505afa158015610a86573d6000803e3d6000fd5b505050506040513d6020811015610a9c57600080fd5b5051604080517f355274ea0000000000000000000000000000000000000000000000000000000081529051919550309163355274ea91600480820192602092909190829003018186803b158015610af257600080fd5b505afa158015610b06573d6000803e3d6000fd5b505050506040513d6020811015610b1c57600080fd5b5051604080517f4042b66f00000000000000000000000000000000000000000000000000000000815290519194503091634042b66f91600480820192602092909190829003018186803b158015610b7257600080fd5b505afa158015610b86573d6000803e3d6000fd5b505050506040513d6020811015610b9c57600080fd5b5051604080517f4f93594500000000000000000000000000000000000000000000000000000000815290519193503091634f93594591600480820192602092909190829003018186803b158015610bf257600080fd5b505afa158015610c06573d6000803e3d6000fd5b505050506040513d6020811015610c1c57600080fd5b50519050909192939495969798565b6006546001600160a01b031681565b6001546001600160a01b031690565b610c538282610e20565b600554610c6e82610c626105ed565b9063ffffffff610ce116565b111561054f5760408051600160e51b62461bcd02815260206004820152601d60248201527f43617070656443726f776473616c653a20636170206578636565646564000000604482015290519081900360640190fd5b6000610cdb60035483610ebd90919063ffffffff16565b92915050565b600082820183811015610d3e5760408051600160e51b62461bcd02815260206004820152601b60248201527f536166654d6174683a206164646974696f6e206f766572666c6f770000000000604482015290519081900360640190fd5b9392505050565b600a54604080517f40c10f190000000000000000000000000000000000000000000000000000000081526001600160a01b03858116600483015260248201859052915191909216916340c10f199160448083019260209291908290030181600087803b158015610db457600080fd5b505af1158015610dc8573d6000803e3d6000fd5b505050506040513d6020811015610dde57600080fd5b50505050565b6002546040516001600160a01b03909116903480156108fc02916000818181858888f19350505050158015610e1d573d6000803e3d6000fd5b50565b6001600160a01b038216610e6857604051600160e51b62461bcd02815260040180806020018281038252602a815260200180610f3b602a913960400191505060405180910390fd5b8061054f5760408051600160e51b62461bcd02815260206004820152601960248201527f43726f776473616c653a20776569416d6f756e74206973203000000000000000604482015290519081900360640190fd5b600082610ecc57506000610cdb565b82820282848281610ed957fe5b0414610d3e57604051600160e51b62461bcd028152600401808060200182810382526021815260200180610f1a6021913960400191505060405180910390fdfe536166654d6174683a206d756c7469706c69636174696f6e206f766572666c6f7743726f776473616c653a2062656e656669636961727920697320746865207a65726f2061646472657373a165627a7a72305820bad9da0d342e695f9ec7795869845eb5e61f084544868ea38b4e47f9c4ab4c3b002943726f776473616c653a20746f6b656e20697320746865207a65726f206164647265737343726f776473616c653a2077616c6c657420697320746865207a65726f206164647265737345524332303a207472616e7366657220746f20746865207a65726f2061646472657373506175736572526f6c653a2063616c6c657220646f6573206e6f742068617665207468652050617573657220726f6c6545524332303a20617070726f766520746f20746865207a65726f20616464726573734d696e746572526f6c653a2063616c6c657220646f6573206e6f74206861766520746865204d696e74657220726f6c65526f6c65733a206163636f756e7420646f6573206e6f74206861766520726f6c65526f6c65733a206163636f756e7420697320746865207a65726f206164647265737345524332303a207472616e736665722066726f6d20746865207a65726f206164647265737345524332303a20617070726f76652066726f6d20746865207a65726f2061646472657373a165627a7a72305820c9660fa6f6dc23a8c44bd8a74cbff50ac9b6611416f7eaee6075a7ad8d8818b30029526f6c65733a206163636f756e7420697320746865207a65726f2061646472657373",
  "source": "pragma solidity 0.5.8;\n\nimport \"../client/node_modules/openzeppelin-solidity/contracts/token/ERC20/ERC20Detailed.sol\";\nimport \"../client/node_modules/openzeppelin-solidity/contracts/token/ERC20/ERC20Mintable.sol\";\nimport \"../client/node_modules/openzeppelin-solidity/contracts/token/ERC20/ERC20Pausable.sol\";\nimport \"./Project.sol\";\n\n\n/** @title Artist  */\ncontract Artist is ERC20Detailed, ERC20Mintable, ERC20Pausable {\n    address payable public owner;\n    uint256 public initialSupply = 100000000000;\n    string public genre;\n    string public bio;\n    string public location;\n    string public imageHash;\n\n    mapping (uint => address) public projects;\n    uint public projectCount;\n\n    mapping (uint => Merch) public merchandise;\n    uint public merchandiseCount;\n\n    event LogProject(string name, address newProjectAddress, address ownerAddress, uint ownerBalance);\n    event LogMerchAdded(uint id, string name);\n\n    struct Merch {\n        string name;\n        string description;\n        uint quantity;\n        uint price;\n        string imageUrl;\n        bool isAvailable;\n        mapping (address => uint) buyers;\n    }\n\n    modifier verifyOwner() {require (msg.sender == owner);_;}\n\n    /** @dev Artist constructor\n      * @param _name name of artist.\n      * @param _symbol symbol of artist Token.\n      * @param _decimals number of decimals used to get its user representatio for Artist Token.\n      * @param _genre genre of artist.\n      * @param _bio bio of artist.\n      * @param _location location of artist.\n      * @param _imageHash ipfsHash of artist image.\n     **/\n    constructor(string memory _name, string memory _symbol, uint8 _decimals, string memory _genre, string memory _bio, string memory _location, string memory _imageHash) \n    ERC20Detailed(_name, _symbol, _decimals)\n    public {\n        owner = tx.origin;\n        genre = _genre;\n        bio = _bio;\n        location = _location;\n        imageHash = _imageHash;\n        merchandiseCount = 0;\n        projectCount = 0;\n    }    \n\n    /** @dev get artist details\n      * @return name of Artist\n      * @return owner address of Artist\n      * @return genre of Artist\n      * @return bio of Artist\n      * @return location of Artist\n      * @return imageHash of Artist image\n      * @return projectCount of Artist\n      * @return merchCount of Artist\n     **/\n    function fetchArtist() public view returns (string memory name, address owner, string memory genre, string memory bio, string memory location, string memory imageHash, uint projectCount, uint merchCount) {\n        owner = this.owner();\n        genre = this.genre();\n        bio = this.bio();\n        location = this.location();\n        imageHash = this.imageHash();\n        projectCount = this.projectCount();\n        merchCount = this.merchandiseCount();\n        name = this.name();\n        return (name, owner, genre, bio, location, imageHash, projectCount, merchCount);\n    }\n\n    /** @dev Creates a new merchandise and adds its to artist's merch store\n      * @param _name name of merchandise.\n      * @param _desc description of merchandise.\n      * @param _quantity total initial quantity of merchandise.\n      * @param _price price of merchandise in wei.\n      * @param _imageUrl ipfsHash of merchandise image.\n     **/\n    function addMerch(string memory _name, string memory _desc, uint _quantity, uint256 _price, string memory _imageUrl) public  {\n        Merch memory newMerch = Merch({name: _name, description: _desc, quantity: _quantity, price: _price, imageUrl: _imageUrl,isAvailable: true });\n        uint newMerchId = merchandiseCount;\n        merchandise[newMerchId] = newMerch;\n        merchandiseCount++;\n        emit LogMerchAdded(newMerchId, newMerch.name);\n    }\n\n    /** @dev makes merchandise status 'available'\n      * @param id id of merchandise to be updated.\n     **/\n    function makeMerchAvailable(uint id) public verifyOwner() {\n        require (merchandise[id].isAvailable == false);\n        merchandise[id].isAvailable = true;\n    }\n\n    /** @dev makes merchandise status 'unavailable'\n      * @param id id of merchandise to be updated.\n     **/\n    function makeMerchUnavailable(uint id) public verifyOwner() {\n        require (merchandise[id].isAvailable == true);\n        merchandise[id].isAvailable = false;\n    }\n\n    /** @dev purchase merch item from store with artist ERC20 tokens.\n      * @param id id of merchandise to be purchased.\n      * @param qty quantity to be purchased.\n      * @param total total cost of purchase in wei.\n      * @return true on completion.\n     **/\n    function buyMerch(uint id, uint qty, uint256 total) public {\n        Merch storage merch = merchandise[id];\n        require (merch.quantity >= qty);\n        require (merch.isAvailable == true);\n\n        uint buyerTokenBalance = this.balanceOf(msg.sender);\n\n        if (buyerTokenBalance >= total) {\n            this.transfer(this.owner(), total);\n            merch.quantity = merch.quantity - qty;\n            merch.buyers[msg.sender] += qty;\n            if (merch.quantity == 0 ){\n                merch.isAvailable = false;\n            }\n        }\n    }\n\n    /** @dev override transfer function to allow tx.origin to transfer (spend) Artist ERC20 tokens\n      * @param recipient id of merchandise to be updated.\n      * @param amount id of merchandise to be updated.\n      * @return true on completion.\n     **/\n    function transfer(address recipient, uint256 amount) public returns (bool) {\n        _transfer(tx.origin, recipient, amount);\n        return true;\n    }\n\n    /** @dev returns merch details \n      * @param merchId of merch to be retrieved\n      * @return name of Merchandise\n      * @return description of Merchandise\n      * @return quantity of Merchandise\n      * @return price of Merchandise\n      * @return imageUrl of Merchandise\n      * @return isAvailable of Merchandise\n     **/\n    function getMerch(uint merchId) public view returns (string memory name, string memory description, uint quantity, uint price, string memory imageUrl, bool isAvailable) {\n        Merch memory merch =  merchandise[merchId];\n        name =  merch.name;\n        description = merch.description;\n        quantity = merch.quantity;\n        price = merch.price;\n        imageUrl = merch.imageUrl;\n        isAvailable = merch.isAvailable;\n        return (name, description, quantity, price, imageUrl, isAvailable);\n    }\n\n    /** @dev create project to be crowdfunded \n      * @param _rate id of merchandise to be purchased.\n      * @param _cap id of merchandise to be purchased.\n      * @param _name id of merchandise to be purchased.\n      * @param _description id of merchandise to be purchased.\n      * @param _imageHash id of merchandise to be purchased.\n      * @return address of newly created project.\n     **/\n    function createProject(uint256 _rate,uint256 _cap, string memory _name, string memory _description, string memory _imageHash) public returns(address) {\n        uint ownerBalance = this.balanceOf(this.owner());\n\n        Project newProject = new Project(_rate, msg.sender, this, _cap, _name, _description, _imageHash );\n        address projectAddress = address(newProject);\n\n        uint newProjectId = projectCount;\n        projects[newProjectId] = projectAddress;\n        projectCount++;\n        \n        emit LogProject(_name, projectAddress, owner, ownerBalance);\n        \n        return projectAddress;\n    }\n\n    /** @dev returns address of project by project id\n      * @param projectId of project to be retrieved\n      * @return address of Project\n     **/\n    function getProject(uint projectId) public view returns (address) {\n        return projects[projectId];\n    }\n    \n    function () external {\n        revert();\n    }\n}",
  "sourcePath": "/Users/g158726/Projects/other/music-dapp/contracts/Artist.sol",
  "compiler": {
    "name": "solc",
    "version": "0.5.8+commit.23d335f2.Emscripten.clang"
  },
  "schemaVersion": "3.0.11",
  "updatedAt": "2019-07-31T04:03:07.834Z",
  "devdoc": {
    "methods": {
      "addMerch(string,string,uint256,uint256,string)": {
        "details": "Creates a new merchandise and adds its to artist's merch store",
        "params": {
          "_desc": "description of merchandise.",
          "_imageUrl": "ipfsHash of merchandise image.*",
          "_name": "name of merchandise.",
          "_price": "price of merchandise in wei.",
          "_quantity": "total initial quantity of merchandise."
        }
      },
      "allowance(address,address)": {
        "details": "See `IERC20.allowance`."
      },
      "balanceOf(address)": {
        "details": "See `IERC20.balanceOf`."
      },
      "buyMerch(uint256,uint256,uint256)": {
        "details": "purchase merch item from store with artist ERC20 tokens.",
        "params": {
          "id": "id of merchandise to be purchased.",
          "qty": "quantity to be purchased.",
          "total": "total cost of purchase in wei."
        },
        "return": "true on completion.*"
      },
      "constructor": {
        "details": "Artist constructor",
        "params": {
          "_bio": "bio of artist.",
          "_decimals": "number of decimals used to get its user representatio for Artist Token.",
          "_genre": "genre of artist.",
          "_imageHash": "ipfsHash of artist image.*",
          "_location": "location of artist.",
          "_name": "name of artist.",
          "_symbol": "symbol of artist Token."
        }
      },
      "createProject(uint256,uint256,string,string,string)": {
        "details": "create project to be crowdfunded ",
        "params": {
          "_cap": "id of merchandise to be purchased.",
          "_description": "id of merchandise to be purchased.",
          "_imageHash": "id of merchandise to be purchased.",
          "_name": "id of merchandise to be purchased.",
          "_rate": "id of merchandise to be purchased."
        },
        "return": "address of newly created project.*"
      },
      "decimals()": {
        "details": "Returns the number of decimals used to get its user representation. For example, if `decimals` equals `2`, a balance of `505` tokens should be displayed to a user as `5,05` (`505 / 10 ** 2`).     * Tokens usually opt for a value of 18, imitating the relationship between Ether and Wei.     * > Note that this information is only used for _display_ purposes: it in no way affects any of the arithmetic of the contract, including `IERC20.balanceOf` and `IERC20.transfer`."
      },
      "fetchArtist()": {
        "details": "get artist details",
        "return": "name of Artistowner address of Artistgenre of Artistbio of Artistlocation of ArtistimageHash of Artist imageprojectCount of ArtistmerchCount of Artist*"
      },
      "getMerch(uint256)": {
        "details": "returns merch details ",
        "params": {
          "merchId": "of merch to be retrieved"
        },
        "return": "name of Merchandisedescription of Merchandisequantity of Merchandiseprice of MerchandiseimageUrl of MerchandiseisAvailable of Merchandise*"
      },
      "getProject(uint256)": {
        "details": "returns address of project by project id",
        "params": {
          "projectId": "of project to be retrieved"
        },
        "return": "address of Project*"
      },
      "makeMerchAvailable(uint256)": {
        "details": "makes merchandise status 'available'",
        "params": {
          "id": "id of merchandise to be updated.*"
        }
      },
      "makeMerchUnavailable(uint256)": {
        "details": "makes merchandise status 'unavailable'",
        "params": {
          "id": "id of merchandise to be updated.*"
        }
      },
      "mint(address,uint256)": {
        "details": "See `ERC20._mint`.     * Requirements:     * - the caller must have the `MinterRole`."
      },
      "name()": {
        "details": "Returns the name of the token."
      },
      "pause()": {
        "details": "Called by a pauser to pause, triggers stopped state."
      },
      "paused()": {
        "details": "Returns true if the contract is paused, and false otherwise."
      },
      "symbol()": {
        "details": "Returns the symbol of the token, usually a shorter version of the name."
      },
      "totalSupply()": {
        "details": "See `IERC20.totalSupply`."
      },
      "transfer(address,uint256)": {
        "details": "override transfer function to allow tx.origin to transfer (spend) Artist ERC20 tokens",
        "params": {
          "amount": "id of merchandise to be updated.",
          "recipient": "id of merchandise to be updated."
        },
        "return": "true on completion.*"
      },
      "unpause()": {
        "details": "Called by a pauser to unpause, returns to normal state."
      }
    },
    "title": "Artist  "
  },
  "userdoc": {
    "methods": {}
  }
}