{
  "contractName": "Artist",
  "abi": [
    {
      "constant": true,
      "inputs": [],
      "name": "name",
      "outputs": [
        {
          "name": "",
          "type": "string"
        }
      ],
      "payable": false,
      "stateMutability": "view",
      "type": "function"
    },
    {
      "constant": false,
      "inputs": [
        {
          "name": "spender",
          "type": "address"
        },
        {
          "name": "value",
          "type": "uint256"
        }
      ],
      "name": "approve",
      "outputs": [
        {
          "name": "",
          "type": "bool"
        }
      ],
      "payable": false,
      "stateMutability": "nonpayable",
      "type": "function"
    },
    {
      "constant": true,
      "inputs": [
        {
          "name": "",
          "type": "uint256"
        }
      ],
      "name": "projects",
      "outputs": [
        {
          "name": "",
          "type": "address"
        }
      ],
      "payable": false,
      "stateMutability": "view",
      "type": "function"
    },
    {
      "constant": true,
      "inputs": [],
      "name": "genre",
      "outputs": [
        {
          "name": "",
          "type": "string"
        }
      ],
      "payable": false,
      "stateMutability": "view",
      "type": "function"
    },
    {
      "constant": true,
      "inputs": [],
      "name": "totalSupply",
      "outputs": [
        {
          "name": "",
          "type": "uint256"
        }
      ],
      "payable": false,
      "stateMutability": "view",
      "type": "function"
    },
    {
      "constant": false,
      "inputs": [
        {
          "name": "sender",
          "type": "address"
        },
        {
          "name": "recipient",
          "type": "address"
        },
        {
          "name": "amount",
          "type": "uint256"
        }
      ],
      "name": "transferFrom",
      "outputs": [
        {
          "name": "",
          "type": "bool"
        }
      ],
      "payable": false,
      "stateMutability": "nonpayable",
      "type": "function"
    },
    {
      "constant": true,
      "inputs": [],
      "name": "decimals",
      "outputs": [
        {
          "name": "",
          "type": "uint8"
        }
      ],
      "payable": false,
      "stateMutability": "view",
      "type": "function"
    },
    {
      "constant": true,
      "inputs": [],
      "name": "projectCount",
      "outputs": [
        {
          "name": "",
          "type": "uint256"
        }
      ],
      "payable": false,
      "stateMutability": "view",
      "type": "function"
    },
    {
      "constant": true,
      "inputs": [],
      "name": "initialSupply",
      "outputs": [
        {
          "name": "",
          "type": "uint256"
        }
      ],
      "payable": false,
      "stateMutability": "view",
      "type": "function"
    },
    {
      "constant": false,
      "inputs": [
        {
          "name": "spender",
          "type": "address"
        },
        {
          "name": "addedValue",
          "type": "uint256"
        }
      ],
      "name": "increaseAllowance",
      "outputs": [
        {
          "name": "",
          "type": "bool"
        }
      ],
      "payable": false,
      "stateMutability": "nonpayable",
      "type": "function"
    },
    {
      "constant": true,
      "inputs": [],
      "name": "location",
      "outputs": [
        {
          "name": "",
          "type": "string"
        }
      ],
      "payable": false,
      "stateMutability": "view",
      "type": "function"
    },
    {
      "constant": true,
      "inputs": [],
      "name": "url",
      "outputs": [
        {
          "name": "",
          "type": "string"
        }
      ],
      "payable": false,
      "stateMutability": "view",
      "type": "function"
    },
    {
      "constant": true,
      "inputs": [],
      "name": "merchandiseCount",
      "outputs": [
        {
          "name": "",
          "type": "uint256"
        }
      ],
      "payable": false,
      "stateMutability": "view",
      "type": "function"
    },
    {
      "constant": true,
      "inputs": [
        {
          "name": "account",
          "type": "address"
        }
      ],
      "name": "balanceOf",
      "outputs": [
        {
          "name": "",
          "type": "uint256"
        }
      ],
      "payable": false,
      "stateMutability": "view",
      "type": "function"
    },
    {
      "constant": true,
      "inputs": [
        {
          "name": "",
          "type": "uint256"
        }
      ],
      "name": "merchandise",
      "outputs": [
        {
          "name": "name",
          "type": "string"
        },
        {
          "name": "description",
          "type": "string"
        },
        {
          "name": "quantity",
          "type": "uint256"
        },
        {
          "name": "price",
          "type": "uint256"
        },
        {
          "name": "imageUrl",
          "type": "string"
        },
        {
          "name": "isAvailable",
          "type": "bool"
        }
      ],
      "payable": false,
      "stateMutability": "view",
      "type": "function"
    },
    {
      "constant": true,
      "inputs": [],
      "name": "owner",
      "outputs": [
        {
          "name": "",
          "type": "address"
        }
      ],
      "payable": false,
      "stateMutability": "view",
      "type": "function"
    },
    {
      "constant": true,
      "inputs": [],
      "name": "symbol",
      "outputs": [
        {
          "name": "",
          "type": "string"
        }
      ],
      "payable": false,
      "stateMutability": "view",
      "type": "function"
    },
    {
      "constant": false,
      "inputs": [
        {
          "name": "spender",
          "type": "address"
        },
        {
          "name": "subtractedValue",
          "type": "uint256"
        }
      ],
      "name": "decreaseAllowance",
      "outputs": [
        {
          "name": "",
          "type": "bool"
        }
      ],
      "payable": false,
      "stateMutability": "nonpayable",
      "type": "function"
    },
    {
      "constant": false,
      "inputs": [
        {
          "name": "recipient",
          "type": "address"
        },
        {
          "name": "amount",
          "type": "uint256"
        }
      ],
      "name": "transfer",
      "outputs": [
        {
          "name": "",
          "type": "bool"
        }
      ],
      "payable": false,
      "stateMutability": "nonpayable",
      "type": "function"
    },
    {
      "constant": true,
      "inputs": [
        {
          "name": "owner",
          "type": "address"
        },
        {
          "name": "spender",
          "type": "address"
        }
      ],
      "name": "allowance",
      "outputs": [
        {
          "name": "",
          "type": "uint256"
        }
      ],
      "payable": false,
      "stateMutability": "view",
      "type": "function"
    },
    {
      "constant": true,
      "inputs": [],
      "name": "image",
      "outputs": [
        {
          "name": "",
          "type": "string"
        }
      ],
      "payable": false,
      "stateMutability": "view",
      "type": "function"
    },
    {
      "constant": true,
      "inputs": [],
      "name": "bio",
      "outputs": [
        {
          "name": "",
          "type": "string"
        }
      ],
      "payable": false,
      "stateMutability": "view",
      "type": "function"
    },
    {
      "inputs": [
        {
          "name": "_name",
          "type": "string"
        },
        {
          "name": "_symbol",
          "type": "string"
        },
        {
          "name": "_decimals",
          "type": "uint8"
        },
        {
          "name": "_genre",
          "type": "string"
        },
        {
          "name": "_bio",
          "type": "string"
        },
        {
          "name": "_location",
          "type": "string"
        },
        {
          "name": "_url",
          "type": "string"
        }
      ],
      "payable": false,
      "stateMutability": "nonpayable",
      "type": "constructor"
    },
    {
      "payable": false,
      "stateMutability": "nonpayable",
      "type": "fallback"
    },
    {
      "anonymous": false,
      "inputs": [
        {
          "indexed": false,
          "name": "name",
          "type": "string"
        },
        {
          "indexed": false,
          "name": "newProjectAddress",
          "type": "address"
        },
        {
          "indexed": false,
          "name": "ownerAddress",
          "type": "address"
        },
        {
          "indexed": false,
          "name": "ownerBalance",
          "type": "uint256"
        }
      ],
      "name": "LogProject",
      "type": "event"
    },
    {
      "anonymous": false,
      "inputs": [
        {
          "indexed": false,
          "name": "id",
          "type": "uint256"
        },
        {
          "indexed": false,
          "name": "name",
          "type": "string"
        }
      ],
      "name": "LogMerchAdded",
      "type": "event"
    },
    {
      "anonymous": false,
      "inputs": [
        {
          "indexed": true,
          "name": "from",
          "type": "address"
        },
        {
          "indexed": true,
          "name": "to",
          "type": "address"
        },
        {
          "indexed": false,
          "name": "value",
          "type": "uint256"
        }
      ],
      "name": "Transfer",
      "type": "event"
    },
    {
      "anonymous": false,
      "inputs": [
        {
          "indexed": true,
          "name": "owner",
          "type": "address"
        },
        {
          "indexed": true,
          "name": "spender",
          "type": "address"
        },
        {
          "indexed": false,
          "name": "value",
          "type": "uint256"
        }
      ],
      "name": "Approval",
      "type": "event"
    },
    {
      "constant": false,
      "inputs": [
        {
          "name": "_name",
          "type": "string"
        },
        {
          "name": "_desc",
          "type": "string"
        },
        {
          "name": "_quantity",
          "type": "uint256"
        },
        {
          "name": "_price",
          "type": "uint256"
        },
        {
          "name": "_imageUrl",
          "type": "string"
        }
      ],
      "name": "addMerch",
      "outputs": [],
      "payable": false,
      "stateMutability": "nonpayable",
      "type": "function"
    },
    {
      "constant": false,
      "inputs": [
        {
          "name": "id",
          "type": "uint256"
        }
      ],
      "name": "makeMerchAvailable",
      "outputs": [],
      "payable": false,
      "stateMutability": "nonpayable",
      "type": "function"
    },
    {
      "constant": false,
      "inputs": [
        {
          "name": "id",
          "type": "uint256"
        }
      ],
      "name": "makeMerchUnavailable",
      "outputs": [],
      "payable": false,
      "stateMutability": "nonpayable",
      "type": "function"
    },
    {
      "constant": false,
      "inputs": [
        {
          "name": "id",
          "type": "uint256"
        },
        {
          "name": "qty",
          "type": "uint256"
        },
        {
          "name": "value",
          "type": "uint256"
        }
      ],
      "name": "buyMerch",
      "outputs": [],
      "payable": false,
      "stateMutability": "nonpayable",
      "type": "function"
    },
    {
      "constant": false,
      "inputs": [
        {
          "name": "rate",
          "type": "uint256"
        },
        {
          "name": "cap",
          "type": "uint256"
        },
        {
          "name": "_name",
          "type": "string"
        },
        {
          "name": "_description",
          "type": "string"
        }
      ],
      "name": "createProject",
      "outputs": [
        {
          "name": "",
          "type": "address"
        }
      ],
      "payable": false,
      "stateMutability": "nonpayable",
      "type": "function"
    },
    {
      "constant": true,
      "inputs": [],
      "name": "fetchArtist",
      "outputs": [
        {
          "name": "_owner",
          "type": "address"
        },
        {
          "name": "_genre",
          "type": "string"
        },
        {
          "name": "_bio",
          "type": "string"
        },
        {
          "name": "_location",
          "type": "string"
        },
        {
          "name": "_url",
          "type": "string"
        },
        {
          "name": "_projectCount",
          "type": "uint256"
        },
        {
          "name": "_merchCount",
          "type": "uint256"
        }
      ],
      "payable": false,
      "stateMutability": "view",
      "type": "function"
    }
  ],
  "bytecode": "0x608060405264174876e8006006553480156200001a57600080fd5b50604051620051df380380620051df833981018060405260e08110156200004057600080fd5b8101908080516401000000008111156200005957600080fd5b828101905060208101848111156200007057600080fd5b81518560018202830111640100000000821117156200008e57600080fd5b50509291906020018051640100000000811115620000ab57600080fd5b82810190506020810184811115620000c257600080fd5b8151856001820283011164010000000082111715620000e057600080fd5b50509291906020018051906020019092919080516401000000008111156200010757600080fd5b828101905060208101848111156200011e57600080fd5b81518560018202830111640100000000821117156200013c57600080fd5b505092919060200180516401000000008111156200015957600080fd5b828101905060208101848111156200017057600080fd5b81518560018202830111640100000000821117156200018e57600080fd5b50509291906020018051640100000000811115620001ab57600080fd5b82810190506020810184811115620001c257600080fd5b8151856001820283011164010000000082111715620001e057600080fd5b50509291906020018051640100000000811115620001fd57600080fd5b828101905060208101848111156200021457600080fd5b81518560018202830111640100000000821117156200023257600080fd5b5050929190505050868686826003908051906020019062000255929190620005d5565b5081600490805190602001906200026e929190620005d5565b5080600560006101000a81548160ff021916908360ff16021790555050505033600560016101000a81548173ffffffffffffffffffffffffffffffffffffffff021916908373ffffffffffffffffffffffffffffffffffffffff1602179055508360079080519060200190620002e6929190620005d5565b508260089080519060200190620002ff929190620005d5565b50816009908051906020019062000318929190620005d5565b5080600a908051906020019062000331929190620005d5565b506000600f819055506000600d819055506200035f336006546200036c640100000000026401000000009004565b5050505050505062000684565b600073ffffffffffffffffffffffffffffffffffffffff168273ffffffffffffffffffffffffffffffffffffffff161415151562000412576040517f08c379a000000000000000000000000000000000000000000000000000000000815260040180806020018281038252601f8152602001807f45524332303a206d696e7420746f20746865207a65726f20616464726573730081525060200191505060405180910390fd5b62000437816002546200054a64010000000002620033f2179091906401000000009004565b6002819055506200049e816000808573ffffffffffffffffffffffffffffffffffffffff1673ffffffffffffffffffffffffffffffffffffffff168152602001908152602001600020546200054a64010000000002620033f2179091906401000000009004565b6000808473ffffffffffffffffffffffffffffffffffffffff1673ffffffffffffffffffffffffffffffffffffffff168152602001908152602001600020819055508173ffffffffffffffffffffffffffffffffffffffff16600073ffffffffffffffffffffffffffffffffffffffff167fddf252ad1be2c89b69c2b068fc378daa952ba7f163c4a11628f55a4df523b3ef836040518082815260200191505060405180910390a35050565b6000808284019050838110151515620005cb576040517f08c379a000000000000000000000000000000000000000000000000000000000815260040180806020018281038252601b8152602001807f536166654d6174683a206164646974696f6e206f766572666c6f77000000000081525060200191505060405180910390fd5b8091505092915050565b828054600181600116156101000203166002900490600052602060002090601f016020900481019282601f106200061857805160ff191683800117855562000649565b8280016001018555821562000649579182015b82811115620006485782518255916020019190600101906200062b565b5b5090506200065891906200065c565b5090565b6200068191905b808211156200067d57600081600090555060010162000663565b5090565b90565b614b4b80620006946000396000f3fe60806040526004361062000187576000357c0100000000000000000000000000000000000000000000000000000000900463ffffffff16806306fdde03146200019a57806307904f071462000230578063095ea7b3146200026f578063107046bd14620002e657806317de3a41146200036557806318160ddd14620003fb57806323b872dd1462000429578063313ce56714620004c057806336fbad2614620004f4578063378dc3dc1462000522578063395093511462000550578063516f279e14620005c75780635600f04f146200065d57806361e5dce314620006f357806370a08231146200072157806379210118146200078a57806383d5926f146200093c5780638da5cb5b146200098f57806395d89b4114620009e9578063a457c2d71462000a7f578063a9059cbb1462000af6578063aaa69d3f1462000b6d578063b4aeabbe1462000bac578063be2a21b81462000d69578063c1162b4a1462000f8d578063dd62ed3e14620011a4578063f3ccaac0146200122d578063f516b42214620012c3575b3480156200019457600080fd5b50600080fd5b348015620001a757600080fd5b50620001b262001359565b6040518080602001828103825283818151815260200191508051906020019080838360005b83811015620001f4578082015181840152602081019050620001d7565b50505050905090810190601f168015620002225780820380516001836020036101000a031916815260200191505b509250505060405180910390f35b3480156200023d57600080fd5b506200026d600480360360208110156200025657600080fd5b8101908080359060200190929190505050620013ff565b005b3480156200027c57600080fd5b50620002cc600480360360408110156200029557600080fd5b81019080803573ffffffffffffffffffffffffffffffffffffffff16906020019092919080359060200190929190505050620014c5565b604051808215151515815260200191505060405180910390f35b348015620002f357600080fd5b5062000323600480360360208110156200030c57600080fd5b8101908080359060200190929190505050620014de565b604051808273ffffffffffffffffffffffffffffffffffffffff1673ffffffffffffffffffffffffffffffffffffffff16815260200191505060405180910390f35b3480156200037257600080fd5b506200037d62001511565b6040518080602001828103825283818151815260200191508051906020019080838360005b83811015620003bf578082015181840152602081019050620003a2565b50505050905090810190601f168015620003ed5780820380516001836020036101000a031916815260200191505b509250505060405180910390f35b3480156200040857600080fd5b5062000413620015b3565b6040518082815260200191505060405180910390f35b3480156200043657600080fd5b50620004a6600480360360608110156200044f57600080fd5b81019080803573ffffffffffffffffffffffffffffffffffffffff169060200190929190803573ffffffffffffffffffffffffffffffffffffffff16906020019092919080359060200190929190505050620015bd565b604051808215151515815260200191505060405180910390f35b348015620004cd57600080fd5b50620004d862001674565b604051808260ff1660ff16815260200191505060405180910390f35b3480156200050157600080fd5b506200050c6200168b565b6040518082815260200191505060405180910390f35b3480156200052f57600080fd5b506200053a62001691565b6040518082815260200191505060405180910390f35b3480156200055d57600080fd5b50620005ad600480360360408110156200057657600080fd5b81019080803573ffffffffffffffffffffffffffffffffffffffff1690602001909291908035906020019092919050505062001697565b604051808215151515815260200191505060405180910390f35b348015620005d457600080fd5b50620005df62001740565b6040518080602001828103825283818151815260200191508051906020019080838360005b838110156200062157808201518184015260208101905062000604565b50505050905090810190601f1680156200064f5780820380516001836020036101000a031916815260200191505b509250505060405180910390f35b3480156200066a57600080fd5b5062000675620017e2565b6040518080602001828103825283818151815260200191508051906020019080838360005b83811015620006b75780820151818401526020810190506200069a565b50505050905090810190601f168015620006e55780820380516001836020036101000a031916815260200191505b509250505060405180910390f35b3480156200070057600080fd5b506200070b62001884565b6040518082815260200191505060405180910390f35b3480156200072e57600080fd5b5062000774600480360360208110156200074757600080fd5b81019080803573ffffffffffffffffffffffffffffffffffffffff1690602001909291905050506200188a565b6040518082815260200191505060405180910390f35b3480156200079757600080fd5b50620007c760048036036020811015620007b057600080fd5b8101908080359060200190929190505050620018d2565b604051808060200180602001878152602001868152602001806020018515151515815260200184810384528a818151815260200191508051906020019080838360005b83811015620008275780820151818401526020810190506200080a565b50505050905090810190601f168015620008555780820380516001836020036101000a031916815260200191505b50848103835289818151815260200191508051906020019080838360005b838110156200089057808201518184015260208101905062000873565b50505050905090810190601f168015620008be5780820380516001836020036101000a031916815260200191505b50848103825286818151815260200191508051906020019080838360005b83811015620008f9578082015181840152602081019050620008dc565b50505050905090810190601f168015620009275780820380516001836020036101000a031916815260200191505b50995050505050505050505060405180910390f35b3480156200094957600080fd5b506200098d600480360360608110156200096257600080fd5b8101908080359060200190929190803590602001909291908035906020019092919050505062001aef565b005b3480156200099c57600080fd5b50620009a762001ccb565b604051808273ffffffffffffffffffffffffffffffffffffffff1673ffffffffffffffffffffffffffffffffffffffff16815260200191505060405180910390f35b348015620009f657600080fd5b5062000a0162001cf1565b6040518080602001828103825283818151815260200191508051906020019080838360005b8381101562000a4357808201518184015260208101905062000a26565b50505050905090810190601f16801562000a715780820380516001836020036101000a031916815260200191505b509250505060405180910390f35b34801562000a8c57600080fd5b5062000adc6004803603604081101562000aa557600080fd5b81019080803573ffffffffffffffffffffffffffffffffffffffff1690602001909291908035906020019092919050505062001d97565b604051808215151515815260200191505060405180910390f35b34801562000b0357600080fd5b5062000b536004803603604081101562000b1c57600080fd5b81019080803573ffffffffffffffffffffffffffffffffffffffff1690602001909291908035906020019092919050505062001e40565b604051808215151515815260200191505060405180910390f35b34801562000b7a57600080fd5b5062000baa6004803603602081101562000b9357600080fd5b810190808035906020019092919050505062001e59565b005b34801562000bb957600080fd5b5062000d276004803603608081101562000bd257600080fd5b8101908080359060200190929190803590602001909291908035906020019064010000000081111562000c0457600080fd5b82018360208201111562000c1757600080fd5b8035906020019184600183028401116401000000008311171562000c3a57600080fd5b91908080601f016020809104026020016040519081016040528093929190818152602001838380828437600081840152601f19601f8201169050808301925050505050505091929192908035906020019064010000000081111562000c9e57600080fd5b82018360208201111562000cb157600080fd5b8035906020019184600183028401116401000000008311171562000cd457600080fd5b91908080601f016020809104026020016040519081016040528093929190818152602001838380828437600081840152601f19601f82011690508083019250505050505050919291929050505062001f1f565b604051808273ffffffffffffffffffffffffffffffffffffffff1673ffffffffffffffffffffffffffffffffffffffff16815260200191505060405180910390f35b34801562000d7657600080fd5b5062000d8162002480565b604051808873ffffffffffffffffffffffffffffffffffffffff1673ffffffffffffffffffffffffffffffffffffffff1681526020018060200180602001806020018060200187815260200186815260200185810385528b818151815260200191508051906020019080838360005b8381101562000e0d57808201518184015260208101905062000df0565b50505050905090810190601f16801562000e3b5780820380516001836020036101000a031916815260200191505b5085810384528a818151815260200191508051906020019080838360005b8381101562000e7657808201518184015260208101905062000e59565b50505050905090810190601f16801562000ea45780820380516001836020036101000a031916815260200191505b50858103835289818151815260200191508051906020019080838360005b8381101562000edf57808201518184015260208101905062000ec2565b50505050905090810190601f16801562000f0d5780820380516001836020036101000a031916815260200191505b50858103825288818151815260200191508051906020019080838360005b8381101562000f4857808201518184015260208101905062000f2b565b50505050905090810190601f16801562000f765780820380516001836020036101000a031916815260200191505b509b50505050505050505050505060405180910390f35b34801562000f9a57600080fd5b50620011a2600480360360a081101562000fb357600080fd5b810190808035906020019064010000000081111562000fd157600080fd5b82018360208201111562000fe457600080fd5b803590602001918460018302840111640100000000831117156200100757600080fd5b91908080601f016020809104026020016040519081016040528093929190818152602001838380828437600081840152601f19601f820116905080830192505050505050509192919290803590602001906401000000008111156200106b57600080fd5b8201836020820111156200107e57600080fd5b80359060200191846001830284011164010000000083111715620010a157600080fd5b91908080601f016020809104026020016040519081016040528093929190818152602001838380828437600081840152601f19601f8201169050808301925050505050505091929192908035906020019092919080359060200190929190803590602001906401000000008111156200111957600080fd5b8201836020820111156200112c57600080fd5b803590602001918460018302840111640100000000831117156200114f57600080fd5b91908080601f016020809104026020016040519081016040528093929190818152602001838380828437600081840152601f19601f820116905080830192505050505050509192919290505050620029dd565b005b348015620011b157600080fd5b506200121760048036036040811015620011ca57600080fd5b81019080803573ffffffffffffffffffffffffffffffffffffffff169060200190929190803573ffffffffffffffffffffffffffffffffffffffff16906020019092919050505062002bec565b6040518082815260200191505060405180910390f35b3480156200123a57600080fd5b506200124562002c73565b6040518080602001828103825283818151815260200191508051906020019080838360005b83811015620012875780820151818401526020810190506200126a565b50505050905090810190601f168015620012b55780820380516001836020036101000a031916815260200191505b509250505060405180910390f35b348015620012d057600080fd5b50620012db62002d15565b6040518080602001828103825283818151815260200191508051906020019080838360005b838110156200131d57808201518184015260208101905062001300565b50505050905090810190601f1680156200134b5780820380516001836020036101000a031916815260200191505b509250505060405180910390f35b606060038054600181600116156101000203166002900480601f016020809104026020016040519081016040528092919081815260200182805460018160011615610100020316600290048015620013f55780601f10620013c957610100808354040283529160200191620013f5565b820191906000526020600020905b815481529060010190602001808311620013d757829003601f168201915b5050505050905090565b600560019054906101000a900473ffffffffffffffffffffffffffffffffffffffff1673ffffffffffffffffffffffffffffffffffffffff163373ffffffffffffffffffffffffffffffffffffffff161415156200145c57600080fd5b60011515600e600083815260200190815260200160002060050160009054906101000a900460ff1615151415156200149357600080fd5b6000600e600083815260200190815260200160002060050160006101000a81548160ff02191690831515021790555050565b6000620014d433848462002db7565b6001905092915050565b600c6020528060005260406000206000915054906101000a900473ffffffffffffffffffffffffffffffffffffffff1681565b60078054600181600116156101000203166002900480601f016020809104026020016040519081016040528092919081815260200182805460018160011615610100020316600290048015620015ab5780601f106200157f57610100808354040283529160200191620015ab565b820191906000526020600020905b8154815290600101906020018083116200158d57829003601f168201915b505050505081565b6000600254905090565b6000620015cc8484846200303a565b6200166984336200166385600160008a73ffffffffffffffffffffffffffffffffffffffff1673ffffffffffffffffffffffffffffffffffffffff16815260200190815260200160002060003373ffffffffffffffffffffffffffffffffffffffff1673ffffffffffffffffffffffffffffffffffffffff168152602001908152602001600020546200336690919063ffffffff16565b62002db7565b600190509392505050565b6000600560009054906101000a900460ff16905090565b600d5481565b60065481565b60006200173633846200173085600160003373ffffffffffffffffffffffffffffffffffffffff1673ffffffffffffffffffffffffffffffffffffffff16815260200190815260200160002060008973ffffffffffffffffffffffffffffffffffffffff1673ffffffffffffffffffffffffffffffffffffffff16815260200190815260200160002054620033f290919063ffffffff16565b62002db7565b6001905092915050565b60098054600181600116156101000203166002900480601f016020809104026020016040519081016040528092919081815260200182805460018160011615610100020316600290048015620017da5780601f10620017ae57610100808354040283529160200191620017da565b820191906000526020600020905b815481529060010190602001808311620017bc57829003601f168201915b505050505081565b600a8054600181600116156101000203166002900480601f0160208091040260200160405190810160405280929190818152602001828054600181600116156101000203166002900480156200187c5780601f1062001850576101008083540402835291602001916200187c565b820191906000526020600020905b8154815290600101906020018083116200185e57829003601f168201915b505050505081565b600f5481565b60008060008373ffffffffffffffffffffffffffffffffffffffff1673ffffffffffffffffffffffffffffffffffffffff168152602001908152602001600020549050919050565b600e602052806000526040600020600091509050806000018054600181600116156101000203166002900480601f016020809104026020016040519081016040528092919081815260200182805460018160011615610100020316600290048015620019825780601f10620019565761010080835404028352916020019162001982565b820191906000526020600020905b8154815290600101906020018083116200196457829003601f168201915b505050505090806001018054600181600116156101000203166002900480601f01602080910402602001604051908101604052809291908181526020018280546001816001161561010002031660029004801562001a245780601f10620019f85761010080835404028352916020019162001a24565b820191906000526020600020905b81548152906001019060200180831162001a0657829003601f168201915b505050505090806002015490806003015490806004018054600181600116156101000203166002900480601f01602080910402602001604051908101604052809291908181526020018280546001816001161561010002031660029004801562001ad25780601f1062001aa65761010080835404028352916020019162001ad2565b820191906000526020600020905b81548152906001019060200180831162001ab457829003601f168201915b5050505050908060050160009054906101000a900460ff16905086565b81600e6000858152602001908152602001600020600201541015151562001b1557600080fd5b6000600e60008581526020019081526020016000206003015483029050808383021015151562001b4457600080fd5b3073ffffffffffffffffffffffffffffffffffffffff1663a9059cbb3073ffffffffffffffffffffffffffffffffffffffff16638da5cb5b6040518163ffffffff167c010000000000000000000000000000000000000000000000000000000002815260040160206040518083038186803b15801562001bc357600080fd5b505afa15801562001bd8573d6000803e3d6000fd5b505050506040513d602081101562001bef57600080fd5b8101908080519060200190929190505050846040518363ffffffff167c0100000000000000000000000000000000000000000000000000000000028152600401808373ffffffffffffffffffffffffffffffffffffffff1673ffffffffffffffffffffffffffffffffffffffff16815260200182815260200192505050602060405180830381600087803b15801562001c8757600080fd5b505af115801562001c9c573d6000803e3d6000fd5b505050506040513d602081101562001cb357600080fd5b81019080805190602001909291905050505050505050565b600560019054906101000a900473ffffffffffffffffffffffffffffffffffffffff1681565b606060048054600181600116156101000203166002900480601f01602080910402602001604051908101604052809291908181526020018280546001816001161561010002031660029004801562001d8d5780601f1062001d615761010080835404028352916020019162001d8d565b820191906000526020600020905b81548152906001019060200180831162001d6f57829003601f168201915b5050505050905090565b600062001e36338462001e3085600160003373ffffffffffffffffffffffffffffffffffffffff1673ffffffffffffffffffffffffffffffffffffffff16815260200190815260200160002060008973ffffffffffffffffffffffffffffffffffffffff1673ffffffffffffffffffffffffffffffffffffffff168152602001908152602001600020546200336690919063ffffffff16565b62002db7565b6001905092915050565b600062001e4f3384846200303a565b6001905092915050565b600560019054906101000a900473ffffffffffffffffffffffffffffffffffffffff1673ffffffffffffffffffffffffffffffffffffffff163373ffffffffffffffffffffffffffffffffffffffff1614151562001eb657600080fd5b60001515600e600083815260200190815260200160002060050160009054906101000a900460ff16151514151562001eed57600080fd5b6001600e600083815260200190815260200160002060050160006101000a81548160ff02191690831515021790555050565b6000600560019054906101000a900473ffffffffffffffffffffffffffffffffffffffff1673ffffffffffffffffffffffffffffffffffffffff163373ffffffffffffffffffffffffffffffffffffffff1614151562001f7e57600080fd5b600085333087878762001f906200347d565b808781526020018673ffffffffffffffffffffffffffffffffffffffff1673ffffffffffffffffffffffffffffffffffffffff1681526020018573ffffffffffffffffffffffffffffffffffffffff1673ffffffffffffffffffffffffffffffffffffffff1681526020018481526020018060200180602001838103835285818151815260200191508051906020019080838360005b838110156200204357808201518184015260208101905062002026565b50505050905090810190601f168015620020715780820380516001836020036101000a031916815260200191505b50838103825284818151815260200191508051906020019080838360005b83811015620020ac5780820151818401526020810190506200208f565b50505050905090810190601f168015620020da5780820380516001836020036101000a031916815260200191505b5098505050505050505050604051809103906000f08015801562002102573d6000803e3d6000fd5b509050600081905060003073ffffffffffffffffffffffffffffffffffffffff166370a08231600560019054906101000a900473ffffffffffffffffffffffffffffffffffffffff166040518263ffffffff167c0100000000000000000000000000000000000000000000000000000000028152600401808273ffffffffffffffffffffffffffffffffffffffff1673ffffffffffffffffffffffffffffffffffffffff16815260200191505060206040518083038186803b158015620021c857600080fd5b505afa158015620021dd573d6000803e3d6000fd5b505050506040513d6020811015620021f457600080fd5b810190808051906020019092919050505090507f6ca8a353551ce90d4eced0f252b7c7d0fc2925eae61db38dc59a0c0a014dab2a8683600560019054906101000a900473ffffffffffffffffffffffffffffffffffffffff168460405180806020018573ffffffffffffffffffffffffffffffffffffffff1673ffffffffffffffffffffffffffffffffffffffff1681526020018473ffffffffffffffffffffffffffffffffffffffff1673ffffffffffffffffffffffffffffffffffffffff168152602001838152602001828103825286818151815260200191508051906020019080838360005b83811015620022fa578082015181840152602081019050620022dd565b50505050905090810190601f168015620023285780820380516001836020036101000a031916815260200191505b509550505050505060405180910390a13073ffffffffffffffffffffffffffffffffffffffff166323b872dd600560019054906101000a900473ffffffffffffffffffffffffffffffffffffffff16846006546040518463ffffffff167c0100000000000000000000000000000000000000000000000000000000028152600401808473ffffffffffffffffffffffffffffffffffffffff1673ffffffffffffffffffffffffffffffffffffffff1681526020018373ffffffffffffffffffffffffffffffffffffffff1673ffffffffffffffffffffffffffffffffffffffff1681526020018281526020019350505050602060405180830381600087803b1580156200243457600080fd5b505af115801562002449573d6000803e3d6000fd5b505050506040513d60208110156200246057600080fd5b810190808051906020019092919050505050819350505050949350505050565b60006060806060806000803073ffffffffffffffffffffffffffffffffffffffff16638da5cb5b6040518163ffffffff167c010000000000000000000000000000000000000000000000000000000002815260040160206040518083038186803b158015620024ee57600080fd5b505afa15801562002503573d6000803e3d6000fd5b505050506040513d60208110156200251a57600080fd5b810190808051906020019092919050505096503073ffffffffffffffffffffffffffffffffffffffff166317de3a416040518163ffffffff167c010000000000000000000000000000000000000000000000000000000002815260040160006040518083038186803b1580156200259057600080fd5b505afa158015620025a5573d6000803e3d6000fd5b505050506040513d6000823e3d601f19601f820116820180604052506020811015620025d057600080fd5b810190808051640100000000811115620025e957600080fd5b828101905060208101848111156200260057600080fd5b81518560018202830111640100000000821117156200261e57600080fd5b505092919050505095503073ffffffffffffffffffffffffffffffffffffffff1663f516b4226040518163ffffffff167c010000000000000000000000000000000000000000000000000000000002815260040160006040518083038186803b1580156200268b57600080fd5b505afa158015620026a0573d6000803e3d6000fd5b505050506040513d6000823e3d601f19601f820116820180604052506020811015620026cb57600080fd5b810190808051640100000000811115620026e457600080fd5b82810190506020810184811115620026fb57600080fd5b81518560018202830111640100000000821117156200271957600080fd5b505092919050505094503073ffffffffffffffffffffffffffffffffffffffff1663516f279e6040518163ffffffff167c010000000000000000000000000000000000000000000000000000000002815260040160006040518083038186803b1580156200278657600080fd5b505afa1580156200279b573d6000803e3d6000fd5b505050506040513d6000823e3d601f19601f820116820180604052506020811015620027c657600080fd5b810190808051640100000000811115620027df57600080fd5b82810190506020810184811115620027f657600080fd5b81518560018202830111640100000000821117156200281457600080fd5b505092919050505093503073ffffffffffffffffffffffffffffffffffffffff16635600f04f6040518163ffffffff167c010000000000000000000000000000000000000000000000000000000002815260040160006040518083038186803b1580156200288157600080fd5b505afa15801562002896573d6000803e3d6000fd5b505050506040513d6000823e3d601f19601f820116820180604052506020811015620028c157600080fd5b810190808051640100000000811115620028da57600080fd5b82810190506020810184811115620028f157600080fd5b81518560018202830111640100000000821117156200290f57600080fd5b505092919050505092503073ffffffffffffffffffffffffffffffffffffffff166336fbad266040518163ffffffff167c010000000000000000000000000000000000000000000000000000000002815260040160206040518083038186803b1580156200297c57600080fd5b505afa15801562002991573d6000803e3d6000fd5b505050506040513d6020811015620029a857600080fd5b81019080805190602001909291905050509150602a905086868686868686965096509650965096509650965090919293949596565b600560019054906101000a900473ffffffffffffffffffffffffffffffffffffffff1673ffffffffffffffffffffffffffffffffffffffff163373ffffffffffffffffffffffffffffffffffffffff1614151562002a3a57600080fd5b62002a446200348e565b60c0604051908101604052808781526020018681526020018581526020018481526020018381526020016001151581525090506000600f54905081600e6000838152602001908152602001600020600082015181600001908051906020019062002ab0929190620034c7565b50602082015181600101908051906020019062002acf929190620034c7565b506040820151816002015560608201518160030155608082015181600401908051906020019062002b02929190620034c7565b5060a08201518160050160006101000a81548160ff021916908315150217905550905050600f600081548092919060010191905055507fdc7b12f3a3e657a393c15b8829b0691514c35869915f01e723dbb8bcec35c65a8183600001516040518083815260200180602001828103825283818151815260200191508051906020019080838360005b8381101562002ba757808201518184015260208101905062002b8a565b50505050905090810190601f16801562002bd55780820380516001836020036101000a031916815260200191505b50935050505060405180910390a150505050505050565b6000600160008473ffffffffffffffffffffffffffffffffffffffff1673ffffffffffffffffffffffffffffffffffffffff16815260200190815260200160002060008373ffffffffffffffffffffffffffffffffffffffff1673ffffffffffffffffffffffffffffffffffffffff16815260200190815260200160002054905092915050565b600b8054600181600116156101000203166002900480601f01602080910402602001604051908101604052809291908181526020018280546001816001161561010002031660029004801562002d0d5780601f1062002ce15761010080835404028352916020019162002d0d565b820191906000526020600020905b81548152906001019060200180831162002cef57829003601f168201915b505050505081565b60088054600181600116156101000203166002900480601f01602080910402602001604051908101604052809291908181526020018280546001816001161561010002031660029004801562002daf5780601f1062002d835761010080835404028352916020019162002daf565b820191906000526020600020905b81548152906001019060200180831162002d9157829003601f168201915b505050505081565b600073ffffffffffffffffffffffffffffffffffffffff168373ffffffffffffffffffffffffffffffffffffffff161415151562002e83576040517f08c379a00000000000000000000000000000000000000000000000000000000081526004018080602001828103825260248152602001807f45524332303a20617070726f76652066726f6d20746865207a65726f2061646481526020017f726573730000000000000000000000000000000000000000000000000000000081525060400191505060405180910390fd5b600073ffffffffffffffffffffffffffffffffffffffff168273ffffffffffffffffffffffffffffffffffffffff161415151562002f4f576040517f08c379a00000000000000000000000000000000000000000000000000000000081526004018080602001828103825260228152602001807f45524332303a20617070726f766520746f20746865207a65726f20616464726581526020017f737300000000000000000000000000000000000000000000000000000000000081525060400191505060405180910390fd5b80600160008573ffffffffffffffffffffffffffffffffffffffff1673ffffffffffffffffffffffffffffffffffffffff16815260200190815260200160002060008473ffffffffffffffffffffffffffffffffffffffff1673ffffffffffffffffffffffffffffffffffffffff168152602001908152602001600020819055508173ffffffffffffffffffffffffffffffffffffffff168373ffffffffffffffffffffffffffffffffffffffff167f8c5be1e5ebec7d5bd14f71427d1e84f3dd0314c0f7b2291e5b200ac8c7c3b925836040518082815260200191505060405180910390a3505050565b600073ffffffffffffffffffffffffffffffffffffffff168373ffffffffffffffffffffffffffffffffffffffff161415151562003106576040517f08c379a00000000000000000000000000000000000000000000000000000000081526004018080602001828103825260258152602001807f45524332303a207472616e736665722066726f6d20746865207a65726f20616481526020017f647265737300000000000000000000000000000000000000000000000000000081525060400191505060405180910390fd5b600073ffffffffffffffffffffffffffffffffffffffff168273ffffffffffffffffffffffffffffffffffffffff1614151515620031d2576040517f08c379a00000000000000000000000000000000000000000000000000000000081526004018080602001828103825260238152602001807f45524332303a207472616e7366657220746f20746865207a65726f206164647281526020017f657373000000000000000000000000000000000000000000000000000000000081525060400191505060405180910390fd5b62003225816000808673ffffffffffffffffffffffffffffffffffffffff1673ffffffffffffffffffffffffffffffffffffffff168152602001908152602001600020546200336690919063ffffffff16565b6000808573ffffffffffffffffffffffffffffffffffffffff1673ffffffffffffffffffffffffffffffffffffffff16815260200190815260200160002081905550620032ba816000808573ffffffffffffffffffffffffffffffffffffffff1673ffffffffffffffffffffffffffffffffffffffff16815260200190815260200160002054620033f290919063ffffffff16565b6000808473ffffffffffffffffffffffffffffffffffffffff1673ffffffffffffffffffffffffffffffffffffffff168152602001908152602001600020819055508173ffffffffffffffffffffffffffffffffffffffff168373ffffffffffffffffffffffffffffffffffffffff167fddf252ad1be2c89b69c2b068fc378daa952ba7f163c4a11628f55a4df523b3ef836040518082815260200191505060405180910390a3505050565b6000828211151515620033e1576040517f08c379a000000000000000000000000000000000000000000000000000000000815260040180806020018281038252601e8152602001807f536166654d6174683a207375627472616374696f6e206f766572666c6f77000081525060200191505060405180910390fd5b600082840390508091505092915050565b600080828401905083811015151562003473576040517f08c379a000000000000000000000000000000000000000000000000000000000815260040180806020018281038252601b8152602001807f536166654d6174683a206164646974696f6e206f766572666c6f77000000000081525060200191505060405180910390fd5b8091505092915050565b6040516115a9806200357783390190565b60c06040519081016040528060608152602001606081526020016000815260200160008152602001606081526020016000151581525090565b828054600181600116156101000203166002900490600052602060002090601f016020900481019282601f106200350a57805160ff19168380011785556200353b565b828001600101855582156200353b579182015b828111156200353a5782518255916020019190600101906200351d565b5b5090506200354a91906200354e565b5090565b6200357391905b808211156200356f57600081600090555060010162003555565b5090565b9056fe60806040523480156200001157600080fd5b50604051620015a9380380620015a9833981018060405260c08110156200003757600080fd5b810190808051906020019092919080519060200190929190805190602001909291908051906020019092919080516401000000008111156200007857600080fd5b828101905060208101848111156200008f57600080fd5b8151856001820283011164010000000082111715620000ad57600080fd5b50509291906020018051640100000000811115620000ca57600080fd5b82810190506020810184811115620000e157600080fd5b8151856001820283011164010000000082111715620000ff57600080fd5b50509291905050508286868660016000819055506000831115156200018c576040517f08c379a00000000000000000000000000000000000000000000000000000000081526004018080602001828103825260148152602001807f43726f776473616c653a2072617465206973203000000000000000000000000081525060200191505060405180910390fd5b600073ffffffffffffffffffffffffffffffffffffffff168273ffffffffffffffffffffffffffffffffffffffff161415151562000258576040517f08c379a00000000000000000000000000000000000000000000000000000000081526004018080602001828103825260258152602001807f43726f776473616c653a2077616c6c657420697320746865207a65726f20616481526020017f647265737300000000000000000000000000000000000000000000000000000081525060400191505060405180910390fd5b600073ffffffffffffffffffffffffffffffffffffffff168173ffffffffffffffffffffffffffffffffffffffff161415151562000324576040517f08c379a00000000000000000000000000000000000000000000000000000000081526004018080602001828103825260248152602001807f43726f776473616c653a20746f6b656e20697320746865207a65726f2061646481526020017f726573730000000000000000000000000000000000000000000000000000000081525060400191505060405180910390fd5b8260038190555081600260006101000a81548173ffffffffffffffffffffffffffffffffffffffff021916908373ffffffffffffffffffffffffffffffffffffffff16021790555080600160006101000a81548173ffffffffffffffffffffffffffffffffffffffff021916908373ffffffffffffffffffffffffffffffffffffffff16021790555050505060008111151562000429576040517f08c379a00000000000000000000000000000000000000000000000000000000081526004018080602001828103825260198152602001807f43617070656443726f776473616c653a2063617020697320300000000000000081525060200191505060405180910390fd5b806005819055505033600660006101000a81548173ffffffffffffffffffffffffffffffffffffffff021916908373ffffffffffffffffffffffffffffffffffffffff16021790555081600790805190602001906200048a929190620004b0565b508060099080519060200190620004a3929190620004b0565b505050505050506200055f565b828054600181600116156101000203166002900490600052602060002090601f016020900481019282601f10620004f357805160ff191683800117855562000524565b8280016001018555821562000524579182015b828111156200052357825182559160200191906001019062000506565b5b50905062000533919062000537565b5090565b6200055c91905b80821115620005585760008160009055506001016200053e565b5090565b90565b61103a806200056f6000396000f3fe6080604052600436106100af576000357c0100000000000000000000000000000000000000000000000000000000900463ffffffff16806306fdde03146100ba5780632c4e722e1461014a578063355274ea146101755780634042b66f146101a05780634f935945146101cb578063521eb273146101fa5780637284e416146102515780638da5cb5b146102e1578063ec8ac4d814610338578063f3ccaac01461037c578063fc0c546a1461040c575b6100b833610463565b005b3480156100c657600080fd5b506100cf6105c2565b6040518080602001828103825283818151815260200191508051906020019080838360005b8381101561010f5780820151818401526020810190506100f4565b50505050905090810190601f16801561013c5780820380516001836020036101000a031916815260200191505b509250505060405180910390f35b34801561015657600080fd5b5061015f610660565b6040518082815260200191505060405180910390f35b34801561018157600080fd5b5061018a61066a565b6040518082815260200191505060405180910390f35b3480156101ac57600080fd5b506101b5610674565b6040518082815260200191505060405180910390f35b3480156101d757600080fd5b506101e061067e565b604051808215151515815260200191505060405180910390f35b34801561020657600080fd5b5061020f610692565b604051808273ffffffffffffffffffffffffffffffffffffffff1673ffffffffffffffffffffffffffffffffffffffff16815260200191505060405180910390f35b34801561025d57600080fd5b506102666106bc565b6040518080602001828103825283818151815260200191508051906020019080838360005b838110156102a657808201518184015260208101905061028b565b50505050905090810190601f1680156102d35780820380516001836020036101000a031916815260200191505b509250505060405180910390f35b3480156102ed57600080fd5b506102f661075a565b604051808273ffffffffffffffffffffffffffffffffffffffff1673ffffffffffffffffffffffffffffffffffffffff16815260200191505060405180910390f35b61037a6004803603602081101561034e57600080fd5b81019080803573ffffffffffffffffffffffffffffffffffffffff169060200190929190505050610463565b005b34801561038857600080fd5b50610391610780565b6040518080602001828103825283818151815260200191508051906020019080838360005b838110156103d15780820151818401526020810190506103b6565b50505050905090810190601f1680156103fe5780820380516001836020036101000a031916815260200191505b509250505060405180910390f35b34801561041857600080fd5b5061042161081e565b604051808273ffffffffffffffffffffffffffffffffffffffff1673ffffffffffffffffffffffffffffffffffffffff16815260200191505060405180910390f35b6001600080828254019250508190555060008054905060003490506104888382610848565b6000610493826108e9565b90506104aa8260045461090790919063ffffffff16565b6004819055506104ba8482610991565b8373ffffffffffffffffffffffffffffffffffffffff163373ffffffffffffffffffffffffffffffffffffffff167f6faf93231a456e552dbc9961f58d9713ee4f2e69d15f1975b050ef0911053a7b8484604051808381526020018281526020019250505060405180910390a3610531848361099f565b6105396109a3565b6105438483610a0e565b5050600054811415156105be576040517f08c379a000000000000000000000000000000000000000000000000000000000815260040180806020018281038252601f8152602001807f5265656e7472616e637947756172643a207265656e7472616e742063616c6c0081525060200191505060405180910390fd5b5050565b60078054600181600116156101000203166002900480601f0160208091040260200160405190810160405280929190818152602001828054600181600116156101000203166002900480156106585780601f1061062d57610100808354040283529160200191610658565b820191906000526020600020905b81548152906001019060200180831161063b57829003601f168201915b505050505081565b6000600354905090565b6000600554905090565b6000600454905090565b600060055461068b610674565b1015905090565b6000600260009054906101000a900473ffffffffffffffffffffffffffffffffffffffff16905090565b60098054600181600116156101000203166002900480601f0160208091040260200160405190810160405280929190818152602001828054600181600116156101000203166002900480156107525780601f1061072757610100808354040283529160200191610752565b820191906000526020600020905b81548152906001019060200180831161073557829003601f168201915b505050505081565b600660009054906101000a900473ffffffffffffffffffffffffffffffffffffffff1681565b60088054600181600116156101000203166002900480601f0160208091040260200160405190810160405280929190818152602001828054600181600116156101000203166002900480156108165780601f106107eb57610100808354040283529160200191610816565b820191906000526020600020905b8154815290600101906020018083116107f957829003601f168201915b505050505081565b6000600160009054906101000a900473ffffffffffffffffffffffffffffffffffffffff16905090565b6108528282610a12565b60055461086f82610861610674565b61090790919063ffffffff16565b111515156108e5576040517f08c379a000000000000000000000000000000000000000000000000000000000815260040180806020018281038252601d8152602001807f43617070656443726f776473616c653a2063617020657863656564656400000081525060200191505060405180910390fd5b5050565b600061090060035483610b5a90919063ffffffff16565b9050919050565b6000808284019050838110151515610987576040517f08c379a000000000000000000000000000000000000000000000000000000000815260040180806020018281038252601b8152602001807f536166654d6174683a206164646974696f6e206f766572666c6f77000000000081525060200191505060405180910390fd5b8091505092915050565b61099b8282610c27565b5050565b5050565b600260009054906101000a900473ffffffffffffffffffffffffffffffffffffffff1673ffffffffffffffffffffffffffffffffffffffff166108fc349081150290604051600060405180830381858888f19350505050158015610a0b573d6000803e3d6000fd5b50565b5050565b600073ffffffffffffffffffffffffffffffffffffffff168273ffffffffffffffffffffffffffffffffffffffff1614151515610add576040517f08c379a000000000000000000000000000000000000000000000000000000000815260040180806020018281038252602a8152602001807f43726f776473616c653a2062656e656669636961727920697320746865207a6581526020017f726f20616464726573730000000000000000000000000000000000000000000081525060400191505060405180910390fd5b60008114151515610b56576040517f08c379a00000000000000000000000000000000000000000000000000000000081526004018080602001828103825260198152602001807f43726f776473616c653a20776569416d6f756e7420697320300000000000000081525060200191505060405180910390fd5b5050565b600080831415610b6d5760009050610c21565b60008284029050828482811515610b8057fe5b04141515610c1c576040517f08c379a00000000000000000000000000000000000000000000000000000000081526004018080602001828103825260218152602001807f536166654d6174683a206d756c7469706c69636174696f6e206f766572666c6f81526020017f770000000000000000000000000000000000000000000000000000000000000081525060400191505060405180910390fd5b809150505b92915050565b610c748282600160009054906101000a900473ffffffffffffffffffffffffffffffffffffffff1673ffffffffffffffffffffffffffffffffffffffff16610c789092919063ffffffff16565b5050565b610d60838473ffffffffffffffffffffffffffffffffffffffff1663a9059cbb90507c0100000000000000000000000000000000000000000000000000000000028484604051602401808373ffffffffffffffffffffffffffffffffffffffff1673ffffffffffffffffffffffffffffffffffffffff16815260200182815260200192505050604051602081830303815290604052907bffffffffffffffffffffffffffffffffffffffffffffffffffffffff19166020820180517bffffffffffffffffffffffffffffffffffffffffffffffffffffffff8381831617835250505050610d65565b505050565b610d848273ffffffffffffffffffffffffffffffffffffffff16610ffb565b1515610df8576040517f08c379a000000000000000000000000000000000000000000000000000000000815260040180806020018281038252601f8152602001807f5361666545524332303a2063616c6c20746f206e6f6e2d636f6e74726163740081525060200191505060405180910390fd5b600060608373ffffffffffffffffffffffffffffffffffffffff16836040518082805190602001908083835b602083101515610e495780518252602082019150602081019050602083039250610e24565b6001836020036101000a0380198251168184511680821785525050505050509050019150506000604051808303816000865af19150503d8060008114610eab576040519150601f19603f3d011682016040523d82523d6000602084013e610eb0565b606091505b5091509150811515610f2a576040517f08c379a00000000000000000000000000000000000000000000000000000000081526004018080602001828103825260208152602001807f5361666545524332303a206c6f772d6c6576656c2063616c6c206661696c656481525060200191505060405180910390fd5b600081511115610ff557808060200190516020811015610f4957600080fd5b81019080805190602001909291905050501515610ff4576040517f08c379a000000000000000000000000000000000000000000000000000000000815260040180806020018281038252602a8152602001807f5361666545524332303a204552433230206f7065726174696f6e20646964206e81526020017f6f7420737563636565640000000000000000000000000000000000000000000081525060400191505060405180910390fd5b5b50505050565b600080823b90506000811191505091905056fea165627a7a723058206ed573000c3d95e86d8b5b47bbf61949f9def64b038aeb61b2f740f1365072dc0029a165627a7a72305820c5f1854173ff2b77a7e01f115c428d9ab35d317dc699e3b3d1b83c3374f715990029",
  "source": "pragma solidity 0.5.0;\n\nimport \"../client/node_modules/openzeppelin-solidity/contracts/token/ERC20/ERC20.sol\";\nimport \"../client/node_modules/openzeppelin-solidity/contracts/token/ERC20/ERC20Detailed.sol\";\nimport \"./Project.sol\";\n\ncontract Artist is ERC20, ERC20Detailed {\n    address payable public owner;\n    uint256 public initialSupply = 100000000000;\n    string public genre;\n    string public bio;\n    string public location;\n    string public url;\n    string public image;\n\n    mapping (uint => address) public projects;\n    uint public projectCount;\n\n    mapping (uint => Merch) public merchandise;\n    uint public merchandiseCount;\n\n    event LogProject(string name, address newProjectAddress, address ownerAddress, uint ownerBalance);\n    event LogMerchAdded(uint id, string name);\n\n    struct Merch {\n        string name;\n        string description;\n        uint quantity;\n        uint price;\n        string imageUrl;\n        bool isAvailable;\n    }\n\n    modifier verifyOwner() {require (msg.sender == owner);_;}\n\n    constructor(string memory _name, string memory _symbol, uint8 _decimals, string memory _genre, string memory _bio, string memory _location, string memory _url) \n    ERC20Detailed(_name, _symbol, _decimals)\n    public {\n        owner = msg.sender;\n        genre = _genre;\n        bio = _bio;\n        location = _location;\n        url = _url;\n        merchandiseCount = 0;\n        projectCount = 0;\n        _mint(msg.sender, initialSupply);\n    }    \n\n    /** \n    \n    Artist Store functions    \n    \n    **/\n    function addMerch(string memory _name, string memory _desc, uint _quantity, uint256 _price, string memory _imageUrl) public verifyOwner() {\n        Merch memory newMerch = Merch({name: _name, description: _desc, quantity: _quantity, price: _price, imageUrl: _imageUrl,isAvailable: true });\n        uint newMerchId = merchandiseCount;\n        merchandise[newMerchId] = newMerch;\n        merchandiseCount++;\n        emit LogMerchAdded(newMerchId, newMerch.name);\n    }\n\n\n    function makeMerchAvailable(uint id) public verifyOwner() {\n        require (merchandise[id].isAvailable == false);\n        merchandise[id].isAvailable = true;\n    }\n\n    function makeMerchUnavailable(uint id) public verifyOwner() {\n        require (merchandise[id].isAvailable == true);\n        merchandise[id].isAvailable = false;\n    }\n\n    function buyMerch(uint id, uint qty, uint value) public {\n        require (merchandise[id].quantity >= qty);\n        // require(msg.value >= merchandise[id].price * qty);//not msg.value accept erc20\n        uint purchaseAmount = qty * merchandise[id].price;\n        require (value * qty >= purchaseAmount); \n\n        this.transfer(this.owner(), value);\n        //perform purchase with specific artist token \n    }\n\n    function createProject(uint256 rate,uint256 cap, string memory _name, string memory _description) public verifyOwner() returns(address) {\n\n\n        Project newProject = new Project(rate, msg.sender, this, cap, _name, _description );\n        address projectAddress = address(newProject);\n\n        uint ownerBalance = this.balanceOf(owner);\n        emit LogProject(_name, projectAddress, owner, ownerBalance);\n\n        this.transferFrom(owner, projectAddress, initialSupply);\n        \n        return projectAddress;\n    }\n\n    function fetchArtist() public view returns (address _owner, string memory _genre, string memory _bio, string memory _location, string memory _url, uint _projectCount, uint _merchCount) {\n        _owner = this.owner();\n        _genre = this.genre();\n        _bio = this.bio();\n        _location = this.location();\n        _url = this.url();\n        _projectCount = this.projectCount();\n        _merchCount = 42;\n        // this.merchandiseCount();\n        return (_owner, _genre, _bio, _location, _url, _projectCount, _merchCount);\n    }\n\n\n    function () external {\n        revert();\n    }\n}",
  "sourcePath": "/Users/richardryangarcia/Documents/projects/8trac/contracts/Artist.sol",
  "compiler": {
    "name": "solc",
    "version": "0.5.0+commit.1d4f565a.Emscripten.clang"
  },
  "schemaVersion": "3.0.3",
  "updatedAt": "2019-07-23T22:50:41.185Z",
  "devdoc": {
    "methods": {
      "allowance(address,address)": {
        "details": "See `IERC20.allowance`."
      },
      "approve(address,uint256)": {
        "details": "See `IERC20.approve`.     * Requirements:     * - `spender` cannot be the zero address."
      },
      "balanceOf(address)": {
        "details": "See `IERC20.balanceOf`."
      },
      "decimals()": {
        "details": "Returns the number of decimals used to get its user representation. For example, if `decimals` equals `2`, a balance of `505` tokens should be displayed to a user as `5,05` (`505 / 10 ** 2`).     * Tokens usually opt for a value of 18, imitating the relationship between Ether and Wei.     * > Note that this information is only used for _display_ purposes: it in no way affects any of the arithmetic of the contract, including `IERC20.balanceOf` and `IERC20.transfer`."
      },
      "decreaseAllowance(address,uint256)": {
        "details": "Atomically decreases the allowance granted to `spender` by the caller.     * This is an alternative to `approve` that can be used as a mitigation for problems described in `IERC20.approve`.     * Emits an `Approval` event indicating the updated allowance.     * Requirements:     * - `spender` cannot be the zero address. - `spender` must have allowance for the caller of at least `subtractedValue`."
      },
      "increaseAllowance(address,uint256)": {
        "details": "Atomically increases the allowance granted to `spender` by the caller.     * This is an alternative to `approve` that can be used as a mitigation for problems described in `IERC20.approve`.     * Emits an `Approval` event indicating the updated allowance.     * Requirements:     * - `spender` cannot be the zero address."
      },
      "name()": {
        "details": "Returns the name of the token."
      },
      "symbol()": {
        "details": "Returns the symbol of the token, usually a shorter version of the name."
      },
      "totalSupply()": {
        "details": "See `IERC20.totalSupply`."
      },
      "transfer(address,uint256)": {
        "details": "See `IERC20.transfer`.     * Requirements:     * - `recipient` cannot be the zero address. - the caller must have a balance of at least `amount`."
      },
      "transferFrom(address,address,uint256)": {
        "details": "See `IERC20.transferFrom`.     * Emits an `Approval` event indicating the updated allowance. This is not required by the EIP. See the note at the beginning of `ERC20`;     * Requirements: - `sender` and `recipient` cannot be the zero address. - `sender` must have a balance of at least `value`. - the caller must have allowance for `sender`'s tokens of at least `amount`."
      }
    }
  },
  "userdoc": {
    "methods": {
      "addMerch(string,string,uint256,uint256,string)": {
        "notice": "Artist Store functions    *"
      }
    }
  }
}