{
  "contractName": "Project",
  "abi": [
    {
      "constant": true,
      "inputs": [],
      "name": "name",
      "outputs": [
        {
          "name": "",
          "type": "string"
        }
      ],
      "payable": false,
      "stateMutability": "view",
      "type": "function"
    },
    {
      "constant": true,
      "inputs": [],
      "name": "rate",
      "outputs": [
        {
          "name": "",
          "type": "uint256"
        }
      ],
      "payable": false,
      "stateMutability": "view",
      "type": "function"
    },
    {
      "constant": true,
      "inputs": [],
      "name": "cap",
      "outputs": [
        {
          "name": "",
          "type": "uint256"
        }
      ],
      "payable": false,
      "stateMutability": "view",
      "type": "function"
    },
    {
      "constant": true,
      "inputs": [],
      "name": "weiRaised",
      "outputs": [
        {
          "name": "",
          "type": "uint256"
        }
      ],
      "payable": false,
      "stateMutability": "view",
      "type": "function"
    },
    {
      "constant": true,
      "inputs": [],
      "name": "capReached",
      "outputs": [
        {
          "name": "",
          "type": "bool"
        }
      ],
      "payable": false,
      "stateMutability": "view",
      "type": "function"
    },
    {
      "constant": true,
      "inputs": [],
      "name": "imageHash",
      "outputs": [
        {
          "name": "",
          "type": "string"
        }
      ],
      "payable": false,
      "stateMutability": "view",
      "type": "function"
    },
    {
      "constant": true,
      "inputs": [],
      "name": "wallet",
      "outputs": [
        {
          "name": "",
          "type": "address"
        }
      ],
      "payable": false,
      "stateMutability": "view",
      "type": "function"
    },
    {
      "constant": true,
      "inputs": [],
      "name": "description",
      "outputs": [
        {
          "name": "",
          "type": "string"
        }
      ],
      "payable": false,
      "stateMutability": "view",
      "type": "function"
    },
    {
      "constant": true,
      "inputs": [],
      "name": "owner",
      "outputs": [
        {
          "name": "",
          "type": "address"
        }
      ],
      "payable": false,
      "stateMutability": "view",
      "type": "function"
    },
    {
      "constant": false,
      "inputs": [
        {
          "name": "beneficiary",
          "type": "address"
        }
      ],
      "name": "buyTokens",
      "outputs": [],
      "payable": true,
      "stateMutability": "payable",
      "type": "function"
    },
    {
      "constant": true,
      "inputs": [],
      "name": "token",
      "outputs": [
        {
          "name": "",
          "type": "address"
        }
      ],
      "payable": false,
      "stateMutability": "view",
      "type": "function"
    },
    {
      "inputs": [
        {
          "name": "_rate",
          "type": "uint256"
        },
        {
          "name": "_wallet",
          "type": "address"
        },
        {
          "name": "_artist",
          "type": "address"
        },
        {
          "name": "_cap",
          "type": "uint256"
        },
        {
          "name": "_name",
          "type": "string"
        },
        {
          "name": "_description",
          "type": "string"
        },
        {
          "name": "_imageHash",
          "type": "string"
        }
      ],
      "payable": false,
      "stateMutability": "nonpayable",
      "type": "constructor"
    },
    {
      "payable": true,
      "stateMutability": "payable",
      "type": "fallback"
    },
    {
      "anonymous": false,
      "inputs": [
        {
          "indexed": true,
          "name": "purchaser",
          "type": "address"
        },
        {
          "indexed": true,
          "name": "beneficiary",
          "type": "address"
        },
        {
          "indexed": false,
          "name": "value",
          "type": "uint256"
        },
        {
          "indexed": false,
          "name": "amount",
          "type": "uint256"
        }
      ],
      "name": "TokensPurchased",
      "type": "event"
    },
    {
      "constant": true,
      "inputs": [],
      "name": "fetchProject",
      "outputs": [
        {
          "name": "owner",
          "type": "address"
        },
        {
          "name": "name",
          "type": "string"
        },
        {
          "name": "imageHash",
          "type": "string"
        },
        {
          "name": "description",
          "type": "string"
        },
        {
          "name": "rate",
          "type": "uint256"
        },
        {
          "name": "ownerWallet",
          "type": "address"
        }
      ],
      "payable": false,
      "stateMutability": "view",
      "type": "function"
    }
  ],
  "bytecode": "0x60806040523480156200001157600080fd5b506040516200143a3803806200143a833981018060405260e08110156200003757600080fd5b8151602083015160408401516060850151608086018051949693959294919392830192916401000000008111156200006e57600080fd5b820160208101848111156200008257600080fd5b81516401000000008111828201871017156200009d57600080fd5b50509291906020018051640100000000811115620000ba57600080fd5b82016020810184811115620000ce57600080fd5b8151640100000000811182820187101715620000e957600080fd5b505092919060200180516401000000008111156200010657600080fd5b820160208101848111156200011a57600080fd5b81516401000000008111828201871017156200013557600080fd5b505060016000559250859150889050878782620001b357604080517f08c379a000000000000000000000000000000000000000000000000000000000815260206004820152601460248201527f43726f776473616c653a20726174652069732030000000000000000000000000604482015290519081900360640190fd5b6001600160a01b03821662000214576040517f08c379a0000000000000000000000000000000000000000000000000000000008152600401808060200182810382526025815260200180620014156025913960400191505060405180910390fd5b6001600160a01b03811662000275576040517f08c379a0000000000000000000000000000000000000000000000000000000008152600401808060200182810382526024815260200180620013f16024913960400191505060405180910390fd5b600392909255600280546001600160a01b039283166001600160a01b03199182161790915560018054929093169116179055806200031457604080517f08c379a000000000000000000000000000000000000000000000000000000000815260206004820152601960248201527f43617070656443726f776473616c653a20636170206973203000000000000000604482015290519081900360640190fd5b600555600680546001600160a01b0319163317905582516200033e90600790602086019062000378565b5081516200035490600990602085019062000378565b5080516200036a90600890602084019062000378565b50505050505050506200041d565b828054600181600116156101000203166002900490600052602060002090601f016020900481019282601f10620003bb57805160ff1916838001178555620003eb565b82800160010185558215620003eb579182015b82811115620003eb578251825591602001919060010190620003ce565b50620003f9929150620003fd565b5090565b6200041a91905b80821115620003f9576000815560010162000404565b90565b610fc4806200042d6000396000f3fe6080604052600436106100c75760003560e01c8063521eb273116100745780638da5cb5b1161004e5780638da5cb5b146103c3578063ec8ac4d8146103d8578063fc0c546a146103fe576100c7565b8063521eb273146101eb5780637284e4161461021c5780638c3006c714610231576100c7565b80634042b66f116100a55780634042b66f146101985780634f935945146101ad57806351605d80146101d6576100c7565b806306fdde03146100d25780632c4e722e1461015c578063355274ea14610183575b6100d033610413565b005b3480156100de57600080fd5b506100e761051a565b6040805160208082528351818301528351919283929083019185019080838360005b83811015610121578181015183820152602001610109565b50505050905090810190601f16801561014e5780820380516001836020036101000a031916815260200191505b509250505060405180910390f35b34801561016857600080fd5b506101716105a8565b60408051918252519081900360200190f35b34801561018f57600080fd5b506101716105ae565b3480156101a457600080fd5b506101716105b4565b3480156101b957600080fd5b506101c26105ba565b604080519115158252519081900360200190f35b3480156101e257600080fd5b506100e76105ce565b3480156101f757600080fd5b50610200610629565b604080516001600160a01b039092168252519081900360200190f35b34801561022857600080fd5b506100e7610638565b34801561023d57600080fd5b50610246610693565b60405180876001600160a01b03166001600160a01b03168152602001806020018060200180602001868152602001856001600160a01b03166001600160a01b03168152602001848103845289818151815260200191508051906020019080838360005b838110156102c15781810151838201526020016102a9565b50505050905090810190601f1680156102ee5780820380516001836020036101000a031916815260200191505b5084810383528851815288516020918201918a019080838360005b83811015610321578181015183820152602001610309565b50505050905090810190601f16801561034e5780820380516001836020036101000a031916815260200191505b50848103825287518152875160209182019189019080838360005b83811015610381578181015183820152602001610369565b50505050905090810190601f1680156103ae5780820380516001836020036101000a031916815260200191505b50995050505050505050505060405180910390f35b3480156103cf57600080fd5b50610200610a5b565b6100d0600480360360208110156103ee57600080fd5b50356001600160a01b0316610413565b34801561040a57600080fd5b50610200610a6a565b6000805460010190819055346104298382610a79565b600061043482610af4565b60045490915061044a908363ffffffff610b1116565b6004556104578482610b75565b604080518381526020810183905281516001600160a01b0387169233927f6faf93231a456e552dbc9961f58d9713ee4f2e69d15f1975b050ef0911053a7b929081900390910190a36104a98483610516565b6104b1610b7f565b6104bb8483610516565b505060005481146105165760408051600160e51b62461bcd02815260206004820152601f60248201527f5265656e7472616e637947756172643a207265656e7472616e742063616c6c00604482015290519081900360640190fd5b5050565b6007805460408051602060026001851615610100026000190190941693909304601f810184900484028201840190925281815292918301828280156105a05780601f10610575576101008083540402835291602001916105a0565b820191906000526020600020905b81548152906001019060200180831161058357829003601f168201915b505050505081565b60035490565b60055490565b60045490565b60006005546105c76105b4565b1015905090565b6008805460408051602060026001851615610100026000190190941693909304601f810184900484028201840190925281815292918301828280156105a05780601f10610575576101008083540402835291602001916105a0565b6002546001600160a01b031690565b6009805460408051602060026001851615610100026000190190941693909304601f810184900484028201840190925281815292918301828280156105a05780601f10610575576101008083540402835291602001916105a0565b60006060806060600080306001600160a01b0316638da5cb5b6040518163ffffffff1660e01b815260040160206040518083038186803b1580156106d657600080fd5b505afa1580156106ea573d6000803e3d6000fd5b505050506040513d602081101561070057600080fd5b5051604080517f06fdde03000000000000000000000000000000000000000000000000000000008152905191975030916306fdde0391600480820192600092909190829003018186803b15801561075657600080fd5b505afa15801561076a573d6000803e3d6000fd5b505050506040513d6000823e601f3d908101601f19168201604052602081101561079357600080fd5b8101908080516401000000008111156107ab57600080fd5b820160208101848111156107be57600080fd5b81516401000000008111828201871017156107d857600080fd5b50509291905050509450306001600160a01b03166351605d806040518163ffffffff1660e01b815260040160006040518083038186803b15801561081b57600080fd5b505afa15801561082f573d6000803e3d6000fd5b505050506040513d6000823e601f3d908101601f19168201604052602081101561085857600080fd5b81019080805164010000000081111561087057600080fd5b8201602081018481111561088357600080fd5b815164010000000081118282018710171561089d57600080fd5b50509291905050509350306001600160a01b0316637284e4166040518163ffffffff1660e01b815260040160006040518083038186803b1580156108e057600080fd5b505afa1580156108f4573d6000803e3d6000fd5b505050506040513d6000823e601f3d908101601f19168201604052602081101561091d57600080fd5b81019080805164010000000081111561093557600080fd5b8201602081018481111561094857600080fd5b815164010000000081118282018710171561096257600080fd5b50509291905050509250306001600160a01b0316632c4e722e6040518163ffffffff1660e01b815260040160206040518083038186803b1580156109a557600080fd5b505afa1580156109b9573d6000803e3d6000fd5b505050506040513d60208110156109cf57600080fd5b5051604080517f521eb2730000000000000000000000000000000000000000000000000000000081529051919350309163521eb27391600480820192602092909190829003018186803b158015610a2557600080fd5b505afa158015610a39573d6000803e3d6000fd5b505050506040513d6020811015610a4f57600080fd5b50519050909192939495565b6006546001600160a01b031681565b6001546001600160a01b031690565b610a838282610bbb565b600554610a9e82610a926105b4565b9063ffffffff610b1116565b11156105165760408051600160e51b62461bcd02815260206004820152601d60248201527f43617070656443726f776473616c653a20636170206578636565646564000000604482015290519081900360640190fd5b6000610b0b60035483610c5890919063ffffffff16565b92915050565b600082820183811015610b6e5760408051600160e51b62461bcd02815260206004820152601b60248201527f536166654d6174683a206164646974696f6e206f766572666c6f770000000000604482015290519081900360640190fd5b9392505050565b6105168282610cb4565b6002546040516001600160a01b03909116903480156108fc02916000818181858888f19350505050158015610bb8573d6000803e3d6000fd5b50565b6001600160a01b038216610c0357604051600160e51b62461bcd02815260040180806020018281038252602a815260200180610f45602a913960400191505060405180910390fd5b806105165760408051600160e51b62461bcd02815260206004820152601960248201527f43726f776473616c653a20776569416d6f756e74206973203000000000000000604482015290519081900360640190fd5b600082610c6757506000610b0b565b82820282848281610c7457fe5b0414610b6e57604051600160e51b62461bcd028152600401808060200182810382526021815260200180610f246021913960400191505060405180910390fd5b600154610516906001600160a01b0316838363ffffffff610cd116565b604080516001600160a01b038416602482015260448082018490528251808303909101815260649091019091526020810180517bffffffffffffffffffffffffffffffffffffffffffffffffffffffff167fa9059cbb00000000000000000000000000000000000000000000000000000000179052610d51908490610d56565b505050565b610d68826001600160a01b0316610f1d565b610dbc5760408051600160e51b62461bcd02815260206004820152601f60248201527f5361666545524332303a2063616c6c20746f206e6f6e2d636f6e747261637400604482015290519081900360640190fd5b60006060836001600160a01b0316836040518082805190602001908083835b60208310610dfa5780518252601f199092019160209182019101610ddb565b6001836020036101000a0380198251168184511680821785525050505050509050019150506000604051808303816000865af19150503d8060008114610e5c576040519150601f19603f3d011682016040523d82523d6000602084013e610e61565b606091505b509150915081610ebb5760408051600160e51b62461bcd02815260206004820181905260248201527f5361666545524332303a206c6f772d6c6576656c2063616c6c206661696c6564604482015290519081900360640190fd5b805115610f1757808060200190516020811015610ed757600080fd5b5051610f1757604051600160e51b62461bcd02815260040180806020018281038252602a815260200180610f6f602a913960400191505060405180910390fd5b50505050565b3b15159056fe536166654d6174683a206d756c7469706c69636174696f6e206f766572666c6f7743726f776473616c653a2062656e656669636961727920697320746865207a65726f20616464726573735361666545524332303a204552433230206f7065726174696f6e20646964206e6f742073756363656564a165627a7a7230582040858d2608c0d3a81902b97855247089a35e85606156d13ca50534e26d975e16002943726f776473616c653a20746f6b656e20697320746865207a65726f206164647265737343726f776473616c653a2077616c6c657420697320746865207a65726f2061646472657373",
  "source": "pragma solidity 0.5.8;\n\nimport \"../client/node_modules/openzeppelin-solidity/contracts/crowdsale/Crowdsale.sol\";\nimport \"../client/node_modules/openzeppelin-solidity/contracts/crowdsale/validation/CappedCrowdsale.sol\";\nimport \"./Artist.sol\";\n\ncontract Project is Crowdsale, CappedCrowdsale {\n    address public owner;\n    string public name;\n    string public imageHash;\n    string public description;\n\n    /**\n     * @param _rate Number of token units a buyer gets per wei\n     * @dev The rate is the conversion between wei and the smallest and indivisible\n     * token unit. So, if you are using a rate of 1 with a ERC20Detailed token\n     * with 3 decimals called TOK, 1 wei will give you 1 unit, or 0.001 TOK.\n     * @param _wallet Address where collected funds will be forwarded to\n     * @param _artist Address of the artist token being sold\n     * @param _cap  maximum amount of wei accepted in the crowdsale.\n     * @param _name name of project \n     */\n    constructor(uint256 _rate, address payable _wallet, Artist _artist, uint256 _cap, string memory _name, string memory _description, string memory _imageHash)\n    Crowdsale(_rate, _wallet, _artist)\n    CappedCrowdsale(_cap)\n    public {\n        owner = msg.sender;\n        name = _name;\n        description = _description;\n        imageHash = _imageHash;\n    }\n\n    function fetchProject() public view \n    returns (address owner,string memory name, string memory imageHash,string memory description, uint256 rate, address ownerWallet)\n    // ,string memory _name,  string memory _imageHash, string memory _description, uint256 _rate, address _ownerWallet, uint256 _cap, bool _capReached,uint256 _weiRaised) \n    {\n        owner = this.owner();\n        name = this.name();\n        imageHash = this.imageHash();\n        description = this.description();\n        rate = this.rate();\n        ownerWallet = this.wallet();\n        // cap = this.cap();\n        // _weiRaised = this.weiRaised();\n        // capReached = this.capReached();\n\n        return ( owner, name, imageHash, description, rate, ownerWallet);\n        // _name, _imageHash, _description, _rate, _ownerWallet, cap, _capReached, _weiRaised);\n    }\n\n}",
  "sourcePath": "/Users/g158726/Projects/other/music-dapp/contracts/Project.sol",
  "compiler": {
    "name": "solc",
    "version": "0.5.8+commit.23d335f2.Emscripten.clang"
  },
  "schemaVersion": "3.0.11",
  "updatedAt": "2019-07-27T21:24:48.760Z",
  "devdoc": {
    "methods": {
      "buyTokens(address)": {
        "details": "low level token purchase ***DO NOT OVERRIDE*** This function has a non-reentrancy guard, so it shouldn't be called by another `nonReentrant` function.",
        "params": {
          "beneficiary": "Recipient of the token purchase"
        }
      },
      "cap()": {
        "return": "the cap of the crowdsale."
      },
      "capReached()": {
        "details": "Checks whether the cap has been reached.",
        "return": "Whether the cap was reached"
      },
      "constructor": {
        "details": "The rate is the conversion between wei and the smallest and indivisible token unit. So, if you are using a rate of 1 with a ERC20Detailed token with 3 decimals called TOK, 1 wei will give you 1 unit, or 0.001 TOK.",
        "params": {
          "_artist": "Address of the artist token being sold",
          "_cap": "maximum amount of wei accepted in the crowdsale.",
          "_name": "name of project ",
          "_rate": "Number of token units a buyer gets per wei",
          "_wallet": "Address where collected funds will be forwarded to"
        }
      },
      "rate()": {
        "return": "the number of token units a buyer gets per wei."
      },
      "token()": {
        "return": "the token being sold."
      },
      "wallet()": {
        "return": "the address where funds are collected."
      },
      "weiRaised()": {
        "return": "the amount of wei raised."
      }
    }
  },
  "userdoc": {
    "methods": {}
  }
}